:100000000C9470090C9498090C9498090C94980914
:100010000C9498090C9498090C9498090C949809DC
:100020000C9498090C9498090C94B5300C94812F79
:100030000C940D1A0C9498090C9498090C94980936
:100040000C9498090C9498090C9498090C949809AC
:100050000C9498090C9498090C9498090C94152BFD
:100060000C9498090C9498090C9498090C9498098C
:100070000C9498090C9498090C9498090C9498097C
:100080000C9498090C9498090C9498090C9498096C
:100090000C94ED210C9498090C9498090C949809EF
:1000A0000C9498090C9498090C949809AA17E917CC
:1000B0002218D817FC17B417221822182218221851
:1000C000F9172218AF172218E017D517221822188F
:1000D00022182218F117C129C429B329B729BD292B
:1000E000E529E529E529C829CC29D029D629DA2905
:1000F000E529E029A42AA92AAE2AB82AC22A0C2B6B
:100100000C2B0C2BCC2AD62AE02AEA2AF72A0C2B15
:10011000FF2A0D0A5B6E6F74207365745D005B4E81
:100120004F5D005B4F4B5D005B5244595D005B4E81
:100130004F5D005B4F4B5D005B5244595D000D0A03
:100140005B61626F72745D0D0A3E000D0A3E005BDA
:10015000756E6B6E6F776E5D005B756E6C6F636B4B
:1001600065645D005B6C6F636B65645D000D0A0D1B
:100170000A466C6173683A0D0A20205072657373E9
:1001800020616E6420686F6C643A20756E6C6F63DA
:100190006B0D0A202053686F727420707265737340
:1001A0003A206C6F636B2E0D0A0D0A23000D0A5B5B
:1001B00061626F72745D000D0A57726F6E67207016
:1001C000617373776F72640D0A5B6C6F636B5D00B4
:1001D0000D0A000D0A43757272656E742070737794
:1001E0003A005741524E494E473A204445535452E3
:1001F0004F595320414C4C2044415441210D0A4158
:10020000726520796F752073757265205B792F6E2A
:100210005D203F005B756E6B6E6F776E5D0D0A3E05
:10022000005B6175746F5D000D5B454E542F752F3B
:10023000702F735D3A000D596F7520646F6E2774CF
:10024000206E65656420746F2074797065202520A8
:10025000666F7220757365722B706173732C206AE0
:1002600075737420747970652074686520616363A8
:100270006F756E74206E756D6265722E0D0A3E008C
:1002800048656C700D0A2D2D2D2D0D0A20537061BF
:1002900063652020717569636B68656C700D0A2059
:1002A000454E5475202053656172636820616E6409
:1002B0002074726967207573720D0A20454E547060
:1002C000202053656172636820616E6420747269D6
:1002D00067207073770D0A20454E547320205365B4
:1002E0006172636820616E642073686F770D0A2005
:1002F000454E54454E542020536561726368206119
:100300006E64207472696720626F74680D0A2078C9
:100310006120204E6577206163636F756E740D0AEE
:1003200020786D20204E6577206D6163726F0D0A15
:100330002078662020466F726D61740D0A207870F7
:1003400020204368616E6765207073770D0A2078FE
:1003500064202044656C6574650D0A20786F202048
:100360004F766572726964650D0A207875202043A6
:10037000686F6F73652023206D6163726F0D0A20B3
:10038000786220205365742062616E6E65720D0A7A
:1003900020786B2020536574206B6579626F6172E1
:1003A00064206C61796F75740D0A202D2D2D2D2D13
:1003B0002D2D2D2D2D2D2D0D0A2023203D20427574
:1003C00074746F6E206F6E205468652046696E618C
:1003D0006C204B65790D0A2025203D204E756D62FD
:1003E000657220203A203D205465787420496E7053
:1003F00075740D0A20454E54203D20454E544552FB
:10040000203E203D20436F6D6D616E640D0A202DEE
:100410002D2D2D2D2D2D2D2D2D2D2D0D0A3E005B3D
:100420006C6F636B5D005468652046696E616C207B
:100430004B65790D0A2D2D2D2D2D2D2D2D2D2D2D8D
:100440002D2D0D0A207520205573720D0A20702065
:10045000205073770D0A202520205573722B50737E
:10046000770D0A2073202053686F770D0A207220C1
:100470002052657065617420726563656E740D0A43
:1004800020522020526570656174206C6173740D78
:100490000A206A20206C697374203C0D0A206B20AE
:1004A000206C697374200D0A206C20206C697374B1
:1004B000203E0D0A207120204C6F636B0D0A2068CE
:1004C000202048656C700D0A20454E54455220206E
:1004D0005365617263680D0A3E0053706163652065
:1004E000666F7220717569636B68656C700D0A3E8A
:1004F000005468652046696E616C204B65790D0A71
:1005000023005B4E4F54453A20666C61736820753A
:100510006E6C6F636B65645D000D0A5B6E6F7420BB
:100520007365745D0D0A3E005B61626F72745D0DF0
:100530000A3E005B252F454E545D2025005D0D0AC7
:100540000053484F5700555D5B535D5B50005000B2
:100550005500205B0029202D20002E20280020207F
:1005600000202A000D0A0D0A5B7265706561745DDA
:10057000000D0A5B61626F72745D000D0A446F20AA
:100580006E6F7420646973636F6E6E6563742E00A2
:100590000D0A5265706561743A000D0A4E65772048
:1005A0007073773A000D0A43757272656E7420702D
:1005B00073773A005741524E494E473A2054686982
:1005C000732072652D656E63727970747320646137
:1005D00074612C2069742074616B65732061726F83
:1005E000756E642033207365636F6E64732070656D
:1005F00072206163636F756E742E0D0A49662070F8
:100600006F776572206973206C6F737420776869E7
:100610006C652072652D656E6372797074696E67A2
:100620002C20646174612077696C6C206265206C99
:100630006F73742E0D0A446F6E277420666F726795
:10064000657420796F7572206E6577207073772ED0
:100650000D0A41726520796F752073757265205B94
:10066000792F6E5D203F000D0A5B6B6579776F72A5
:100670006420746F6F206C6F6E675D0D0A3E005BC7
:100680006B6579776F726420616D626967756F75EC
:10069000735D0D0A3E005D0D0A3E005B466F756E90
:1006A0006420005B6E6F7420666F756E645D0D0A6A
:1006B0003E00202D2000466F756E643A20000D0A22
:1006C0005B7365617263685D005B656D7074792052
:1006D0006B6579776F72645D0D0A3E000D5365613D
:1006E0007263683A202020202020004163636F75E8
:1006F0006E7473205B000D0A5B61626F72745D0043
:100700000D0A5B646F6E655D000D0A42616E6E6579
:10071000722028302D3331293A005B61626F727488
:100720005D005B656D7074795D005B7365745D0081
:100730004E6F742061206D6163726F2C206275743E
:1007400020796F752772652074686520626F7373F6
:100750002E005B61626F72745D005B656D70747911
:100760005D00205B792F6E5D203F0044656C2000AA
:100770004F7665727269646520000D0A5B61626F75
:1007800072745D005B646F6E655D000D0A5B736182
:10079000766520656E74727920005D000D0A5B46F7
:1007A0007265653A000D0A54787420746F6F206C7E
:1007B0006F6E6721000D0A456D707479206C696E4B
:1007C000652077697468202E20746F2073617665C8
:1007D0003A000D0A4D6163726F205469746C652094
:1007E00028302D3331293A000D0A5B66756C6C5D3B
:1007F000000D0A5B61626F72745D005B646F6E6511
:100800005D000D0A5B7361766520656E74727920F8
:10081000000D0A3E000D0A536570657261746F72B7
:100820003F0D0A2031203D205B5441425D0D0A20DE
:1008300032203D205B454E545D0D0A2033203D2083
:1008400043686F6F73650D0A25000D0A5370656369
:1008500069616C732C2028312D3230293A000D0A41
:100860005370656369616C733F0D0A2031203D2030
:10087000416C6C0D0A2032203D2043686F6F736518
:100880000D0A2033203D204E6F6E650D0A2500298C
:100890003A000D0A4C656E2C2028312D00293A00B3
:1008A0000D0A5073772C2028312D000D0A507377D4
:1008B00020747970653F200D0A2031203D206D6144
:1008C0006E75616C0D0A2032203D206175746F0DCC
:1008D0000A25000D0A557365723A004163636F750E
:1008E0006E74205469746C652C2028302D333129A6
:1008F0003A000D0A5B66756C6C5D005B656D70742B
:10090000795D0D0A3E005B61626F72745D0D0A3E97
:1009100000205B646F6E655D0D0A3E000D0A5B454D
:1009200052524F525D2057726F6E672077696E6426
:100930006F772C2074727920616761696E2E000DCB
:100940000A000D0A202050617373776F72643A2099
:10095000000D0A2020557365726E616D653A2000A6
:100960000D0A4163636F756E743A2000205B455D2C
:1009700000205B505D00205B535D00205B555D00F7
:10098000205B4D5D00203F0D0A005B4552524F52E7
:100990005D005B53484F575D20005B505D20005B5E
:1009A000555D20005B555D5B535D5B505D20000D28
:1009B0000A005B61626F72745D0D0A3E000D5B643C
:1009C0006F6E655D202020000D0A5B67656E6572A5
:1009D0006174655D000D0A5B736B697020746573EB
:1009E000745D000D0A4C61796F757420636F7272CB
:1009F000656374206966206964656E746963616CFF
:100A000020746F2061626F7665206C696E652E0DB3
:100A10000A436F7272656374205B792F6E5D203FAD
:100A200000537570706F72746564207370656369CC
:100A3000616C733A000D0A546F20766572696679AD
:100A4000207468652073656C6563746564206C61EF
:100A5000796F757420776F726B732C20666F637576
:100A600073206120626C616E6B20746578742D66F2
:100A700069656C640D0A7468656E207072657373C5
:100A800020746865206B6579206F72206C6F6E67CB
:100A90002D707265737320746F20736B697020748E
:100AA000686520746573742E0D0A23000D0A5B447B
:100AB000656E6965645D000D0A5B4772616E746501
:100AC000645D007D0D0A506173733A004E65656484
:100AD00020666F726D6174206265666F7265207545
:100AE000736500202320000D000D0A4E616D652CFA
:100AF0002028302D3331293A000D0A5B4552524FE0
:100B0000525D000D0A5265706561743A005073774A
:100B10003A00497420697320696D706F7274616E58
:100B200074207468617420796F752072656D656DCD
:100B300062657220746869732070617373776F7275
:100B4000642E0D0A5468652046696E616C204B6501
:100B5000792063616E206E6F7420626520756E6C03
:100B60006F636B656420776974686F75742069744E
:100B70002E0043686F6F73652070617373776F72B7
:100B8000642028312D333229000D0A5B73617665AC
:100B9000645D000D0A5B496E76616C696420636870
:100BA0006F6963655D0025200053656C6563742083
:100BB0006B6579626F617264206C61796F75743AEC
:100BC000002020332E20444B4D4143002020322E64
:100BD00020444B5043002020312E205553504300D9
:100BE0005D000D0A5B556E737570706F727465648D
:100BF0003A0052096AD53036A538BF40A39E81F32A
:100C0000D7FB7CE339829B2FFF87348E4344C4DEBD
:100C1000E9CB547B9432A6C2233DEE4C950B42FAAD
:100C2000C34E082EA16628D924B2765BA2496D8BEB
:100C3000D12572F8F66486689816D4A45CCC5D65FC
:100C4000B6926C704850FDEDB9DA5E154657A78D27
:100C50009D8490D8AB008CBCD30AF7E45805B8B398
:100C60004506D02C1E8FCA3F0F02C1AFBD03011332
:100C70008A6B3A9111414F67DCEA97F2CFCEF0B41C
:100C8000E67396AC7422E7AD3585E2F937E81C755A
:100C9000DF6E47F11A711D29C5896FB7620EAA1858
:100CA000BE1BFC563E4BC6D279209ADBC0FE78CDE7
:100CB0005AF41FDDA8338807C731B11210592780B5
:100CC000EC5F60517FA919B54A0D2DE57A9F93C954
:100CD0009CEFA0E03B4DAE2AF5B0C8EBBB3C835384
:100CE0009961172B047EBA77D626E16914635521E2
:100CF0000C7D637C777BF26B6FC53001672BFED771
:100D0000AB76CA82C97DFA5947F0ADD4A2AF9CA494
:100D100072C0B7FD9326363FF7CC34A5E5F171D804
:100D2000311504C723C31896059A071280E2EB27F2
:100D3000B27509832C1A1B6E5AA0523BD6B329E315
:100D40002F8453D100ED20FCB15B6ACBBE394A4CF5
:100D500058CFD0EFAAFB434D338545F9027F503C75
:100D60009FA851A3408F929D38F5BCB6DA2110FFA1
:100D7000F3D2CD0C13EC5F974417C4A77E3D645D9E
:100D8000197360814FDC222A908846EEB814DE5E2B
:100D90000BDBE0323A0A4906245CC2D3AC6291957F
:100DA000E479E7C8376D8DD54EA96C56F4EA657ABB
:100DB000AE08BA78252E1CA6B4C6E8DD741F4BBD5C
:100DC0008B8A703EB5664803F60E613557B986C109
:100DD0001D9EE1F8981169D98E949B1E87E9CE5526
:100DE00028DF8CA1890DBFE6426841992D0FB054D0
:100DF000BB165B454E445D005B424547494E5D0076
:100E00000D5B446F6E655D202020202020000D4585
:100E10006E6372797074696E672E00466F726D61D1
:100E20007474696E673A000D5B646F6E655D2020B7
:100E300000456E6372797074696E673A0043686149
:100E40006E67696E672070617373776F72642E00CE
:100E50005B46696E616C4B6579325D004552524F5D
:100E6000525D00444B4D41435D00444B50435D0097
:100E700055534D41435D00555350435D005B4B65F9
:100E800079626F6172643A20000000000000000087
:100E90000000000000000000002A002B00280000D5
:100EA0000000000000000000000000000000000042
:100EB0000000000000000000000000000000000032
:100EC0000000000000000000002C001E021F022095
:100ED0000220422202230232002502260232022D83
:100EE00000360038003700240227001E001F0020B3
:100EF00000210022002300240025002600370236AE
:100F0000026400270264022D023240040205020638
:100F1000020702080209020A020B020C020D020E6D
:100F2000020F02100211021202130214021502161D
:100F3000021702180219021A021B021C021D0225C6
:100F40004024422640000038023500040005000617
:100F5000000700080009000A000B000C000D000E3D
:100F6000000F0010001100120013001400150016ED
:100F7000001700180019001A001B001C001D002596
:100F8000420C40264200000000000000000000006B
:100F90000000000000000000002A002B00280000D4
:100FA0000000000000000000000000000000000041
:100FB0000000000000000000000000000000000031
:100FC0000000000000000000002C001E021F022094
:100FD0000221402202230232002502260232022D83
:100FE00000360038003700240227001E001F0020B2
:100FF00000210022002300240025002600370236AD
:10100000026400270264022D021F4004020502064A
:10101000020702080209020A020B020C020D020E6C
:10102000020F02100211021202130214021502161C
:10103000021702180219021A021B021C021D0225C5
:1010400040644026400000380235000400050006D8
:10105000000700080009000A000B000C000D000E3C
:10106000000F0010001100120013001400150016EC
:10107000001700180019001A001B001C001D002496
:10108000402E40274000000000000000000000004B
:101090000000000000000000002A002B00280000D3
:1010A0000000000000000000000000000000000040
:1010B0000000000000000000000000000000000030
:1010C0000000000000000000002C001E023402207E
:1010D0000221022202240234002602270225022EC7
:1010E0000236002D003700380027001E001F0020A8
:1010F00000210022002300240025002600330233B3
:101100000036022E00370238021F020402050206D2
:10111000020702080209020A020B020C020D020E6B
:10112000020F02100211021202130214021502161B
:10113000021702180219021A021B021C021D022FBA
:10114000003100300023022D0235000400050006A6
:10115000000700080009000A000B000C000D000E3B
:10116000000F0010001100120013001400150016EB
:10117000001700180019001A001B001C001D002F8A
:101180000231023002350200000000000200090FA7
:101190000000030401000C0000000000000000003B
:1011A0000000000000000004080201104080401010
:1011B000204080408008020401804020100201107D
:1011C00080102040400404040404030405020202C9
:1011D00002040302020202060606060606040402D0
:1011E000020204000000002300260029002C002F2A
:1011F0000000000000250028002B002E0031000018
:10120000000000240027002A002D00300000C180CB
:1012100081C11201000202000040501DCA6000019D
:10122000010200011201000200000040501DCA60CE
:1012300000010102000143796265725374616C6BB5
:10124000520046696E616C4B65790004030904081D
:101250000B0002020201000904000001020200006A
:1012600005240010010524010101042402060524BF
:101270000600010705810310004009040100020A6D
:10128000000000070502024000000705830240003D
:10129000000904020001030000000921010100010E
:1012A000222F000705840340000105010906A10162
:1012B0008502050719E029E7150025017501950844
:1012C000810295017508810395067508150025654D
:1012D0000507190029658100C0000B21FB31EE32A2
:1012E00011241FBECFEFDAE0DEBFCDBF12E0A0E0D9
:1012F000B1E0EEE9F9E602C005900D92AA30B1071F
:10130000D9F724E0AAE0B2E001C01D92A639B207E5
:10131000E1F712E1C0EED2E104C02297FE010E9483
:10132000D633CA3DD107C9F70E94722D0C94CD3433
:101330000C9400006115710581F0DB010D90002017
:10134000E9F7AD0141505109461B570BDC01ED9106
:10135000FC910280F381E02D099480E090E00895F3
:1013600060EC71E087E394E00C94592C6AEF70E034
:101370008AE00E947E2A8AE192E00E940819CB014D
:101380000E94FB3261E08AE00C941F2A66ED7BE04C
:1013900087E394E00E94762C6CEC7BE087E394E09A
:1013A0000E94762C61EC7BE087E394E00C94762C31
:1013B00061E08AE00E94E62961E087E00E94E62978
:1013C0008AE192E00E94F51887E692E00E94BC2034
:1013D00040E855E260E070E087E394E00E94E63187
:1013E0000E94B60960E087E00E941F2A60E089E061
:1013F0000E94E62961E089E00C941F2ACF93DF93D5
:10140000CFEFD0E0BE018AE00E947E2A61E070E06A
:1014100080E090E00E948E2B2197C034D10591F797
:10142000C0E4D0E0BE018AE00E947E2A62E070E063
:1014300080E090E00E948E2B2196CF3FD10591F75E
:1014400061E08AE0DF91CF910C941F2A90ED980F14
:101450009A3038F09FE9980F81E0963018F080E0DC
:10146000089581E00895FC01908180ED890F8A3014
:1014700040F08FE9890F863018F489EA890F01C09E
:1014800080E08295807F918120ED290F2A3010F431
:10149000822B08952FE9290F263010F49755892BB8
:1014A0000895FC012081222349F03FE9320F3A31AF
:1014B00018F42052FC0120830196F3CF089587E3AE
:1014C00094E00E945331892B59F087E394E00E9405
:1014D000633164E170E080E090E00E948E2BEFCFFA
:1014E00008959F92AF92BF92CF92DF92EF92FF92B8
:1014F0000F931F93CF93DF93EC011816190624F472
:1015000087E394E00E94622CA12CBB24B3940CEBE3
:1015100012E088EEE82E83E0F82E99249394209729
:1015200009F440C0CE01B7010E947F336B01892BC3
:10153000B1F41C161D069CF467EE7AE087E394E094
:101540000E94342C4AE050E0B60187E394E00E9408
:101550003D2D63EE7AE087E394E00E94342C61E055
:1015600070E080E090E00E948E2B6B2D8AE00E945C
:101570001F2AA39484E6A81202C0B924A12C89E0F2
:101580000E94552A892B21F40150110941F60AC005
:101590000C3B82E0180741F41C161D060CF0BFCF6F
:1015A0002197BDCFC0E001C0C1E06B2D8AE00E9451
:1015B0001F2A0E945F0A87E394E00E94EC318111A8
:1015C00001C0C0E061E08AE00E941F2A66E171E08C
:1015D00087E394E00E94882C8C2FDF91CF911F919C
:1015E0000F91FF90EF90DF90CF90BF90AF909F90C2
:1015F0000895BF92CF92DF92EF92FF920F931F93C5
:10160000CF93DF93EC01C62EB42E062F10E00F5FB0
:101610001F4FA80160E070E00E949934D12CF12C9A
:1016200089E00E94552A892BB1F489E00E94552A4D
:10163000892BD9F3D3948D2D992787FD90950E94FE
:10164000FB3260E08AE00E941F2A62E370E080E0E3
:1016500090E00E948E2B87E394E00E945331892B07
:1016600009F47BC087E394E00E946331E82E88E0B0
:10167000E8121DC0DD2091F061E08AE00E941F2A7F
:10168000A80160E070E0CE010E94993460E271E050
:1016900087E394E00E94592CD12C19C0FF2009F453
:1016A00045C0FA94FE01EF0DF11D10823FC08DE0A0
:1016B000E81204C00E94B60981E058C08BE1E8122C
:1016C00008C0A80160E070E0CE010E949934F12CBE
:1016D0002DC0FC1409F447C0E4E6F1E081918E15B9
:1016E000B1F081E0E03CF807C9F762EE7BE087E308
:1016F00094E00E94342C6E2D87E394E00E945B2CD2
:1017000060EE7BE087E394E00E94762C2CC0DD2025
:1017100041F06EEF70E080E090E00E9403336F5F75
:10172000E626FE01EF0DF11DE082F394BB20A9F047
:101730006DE087E394E00E9429316BE187E394E058
:101740000E94293165E271E087E394E00E949A09E2
:10175000BE0187E394E00E949A0987E394E00E9427
:10176000EC3181115DCF0E94B60980E0DF91CF910D
:101770001F910F91FF90EF90DF90CF90BF90089551
:101780005F926F927F928F929F92AF92BF92CF9211
:10179000DF92EF92FF920F931F93CF93DF93CDB71A
:1017A000DEB7CE59D1400FB6F894DEBF0FBECDBF25
:1017B0007C018E010F511F4F8EEBF80111928A951B
:1017C000E9F7FFEFEF16FF0699F481E393E00E943B
:1017D00052267C01E11481E0F80619F468EE77E006
:1017E0009DC088E893E10E94710A882309F494C09F
:1017F00062ED77E087E394E00E94762C41E06FE1B0
:10180000CE0101960E94F90A882309F485C065EB90
:1018100077E087E394E00E94762C512C9DEB792EA3
:101820002AE0622E3DEBA32EB12C4BEBC42ED12C23
:101830004801850C911C672D651941E0C4010E9487
:10184000F90A882309F468C0F40101900020E9F73F
:101850003297E815F90571F5F40180818E3251F562
:10186000319710826BE877E087E394E00E94342C94
:1018700040E150E0B70187E394E00E943D2D69E329
:1018800071E087E394E00E94882C1AA219A28EEBE3
:10189000F801DE01939601900D928A95E1F7AE0171
:1018A0004F5F5F4F6E2D81E393E00E94FB2464E85D
:1018B00077E034C0F80101900020E9F73197E01B90
:1018C000F10BD801AE0FB11D6C92552453945E0EEE
:1018D000852C912CC5018819990902973CF465EA79
:1018E00077E087E394E00E94762C16C06CE977E0FD
:1018F00087E394E00E94342CB601681979094AE024
:1019000050E087E394E00E943D2D6AE977E087E3A9
:1019100094E00E94762C8CCF6AE777E087E394E02E
:101920000E94762CC256DE4F0FB6F894DEBF0FBE73
:10193000CDBFDF91CF911F910F91FF90EF90DF907E
:10194000CF90BF90AF909F908F907F906F905F905F
:101950000895CF93DF93CDB7DEB7A0970FB6F89475
:10196000DEBF0FBECDBF88E893E10E94710A8823D5
:10197000E1F069E077E087E394E00E94762C41E0B3
:101980006FE1CE0101960E94F90A882371F0BE0131
:101990006F5F7F4F81E393E00E94762360E077E002
:1019A00087E394E00E94762C06C066EF76E087E33A
:1019B00094E00E94342CA0960FB6F894DEBF0FBEC0
:1019C000CDBFDF91CF9108958F929F92AF92BF923A
:1019D000CF92DF92EF92FF920F931F93CF93DF93FB
:1019E000CDB7DEB7DA950FB6F894DEBF0FBECDBF28
:1019F000A82E992EB62E8901442331F06BE5C62E10
:101A0000D12CE12CF12C05C05DE3C52ED12CE12CAD
:101A1000F12CA60164E671E0CE0101960E9490349B
:101A200001151105E9F0F80101900020E9F7AF0177
:101A300041505109401B510B81E090E08C0F9D1FDC
:101A40008C0D9D1DB8010E949034F801019000207A
:101A5000E9F73197E01BF10BCE0EDF1EE11CF11C04
:101A600068EC79E087E394E00E94762C8A2C0A2DBA
:101A7000192DA02EA818AB1478F568E271E087E361
:101A800094E00E94592C4AE050E06A2D87E394E0EC
:101A90000E94522D6FE287E394E00E9429314AE0D0
:101AA00050E06B2D87E394E00E94522D6DE587E3B3
:101AB00094E00E942931B701A6018AE192E00E94D8
:101AC0007219E1E0F0E0EC0FFD1FE60FF11D8081DF
:101AD000F80181938F01CDCF6DEB79E087E394E03E
:101AE000D3950FB6F894DEBF0FBECDBFDF91CF9177
:101AF0001F910F91FF90EF90DF90CF90BF90AF902C
:101B00009F908F900C94762C8F929F92AF92BF9261
:101B1000CF92DF92EF92FF920F931F93CF93DF93B9
:101B2000CDB7DEB7A1970FB6F894DEBF0FBECDBF1D
:101B300089A30E94B00990910A0289A18F3F21F4E4
:101B400091110BC085E011C0813029F4953051F41A
:101B500010920A020CC087FF03C0911105C007C094
:101B6000882329F0953018F4890F80930A02009198
:101B70000A028CE2089F800111246BEE76E087E375
:101B800094E00E94342C4AE050E060910A0287E31E
:101B900094E00E94522D6BE271E087E394E00E9492
:101BA000592C8CE2800FA12CB12CC82ED12CCE0147
:101BB00001967C017BE2972E0C151D0508F04DC0A7
:101BC000A701602F81E393E00E94FC23882309F49E
:101BD00041C0BB2061F0892C8A18A12CA81461F0A7
:101BE00060E287E394E00E942931A394F7CF60E29A
:101BF00087E394E00E9429310031110528F460E365
:101C000087E394E00E94293140E150E0B80187E386
:101C100094E00E94592D61E371E087E394E00E9413
:101C2000592CF70101900020E9F7AE2EAE1895E08F
:101C3000A90EB70187E394E00E94592CBB2041F024
:101C400062E271E087E394E00E94592CB12C02C05B
:101C5000BB24B3940F5F1F4FAFCFBB2021F087E3AE
:101C600094E00E94622C6EE387E394E00E942931A5
:101C7000A1960FB6F894DEBF0FBECDBFDF91CF9116
:101C80001F910F91FF90EF90DF90CF90BF90AF909A
:101C90009F908F9008950F931F93CF93DF93CDB7AD
:101CA000DEB7A0970FB6F894DEBF0FBECDBF87E3B7
:101CB00094E00E94622C00E010E0AE014F5F5F4FA5
:101CC000602F81E393E00E94FC238823D1F0003150
:101CD000110528F460E387E394E00E94293140E194
:101CE00050E0B80187E394E00E94592DBE016F5F78
:101CF0007F4F87E394E00E94592C87E394E00E9491
:101D0000622C0F5F1F4F011581E01807B1F665E3E4
:101D100071E087E394E00E94882C0E94C6096EE37C
:101D200087E394E00E942931A0960FB6F894DEBFB5
:101D30000FBECDBFDF91CF911F910F910895DF921C
:101D4000EF92FF920F931F93CF93DF93CDB7DEB740
:101D5000C150D1400FB6F894DEBF0FBECDBFF82EF4
:101D60008B01E42E6F3F8FEF780719F462EB79E077
:101D70007BC0DD24DA94DF0CAE014F515F4F602F42
:101D800081E393E00E94FC23882309F46BC020E0E8
:101D9000E22FF0E0DF01AC5EBD4F8C918F110AC0E5
:101DA000EE0FFF1FE55FFD4F808191818017910746
:101DB00009F42AE02F5F243058F32430A9F48091ED
:101DC0001302E82FF0E0DF01AC5EBD4FFC92EE0F96
:101DD000FF1FE55FFD4F118300838F5F8093130228
:101DE000843010F0109213026FEA79E087E394E0F8
:101DF0000E94762C92E0F91689F09F1530F081E070
:101E0000F81212C06AE979E011C093E0F91649F0BE
:101E100084E1F81209C06FE979E008C064EA79E06A
:101E200005C062E979E002C06AE879E087E394E0FE
:101E30000E94342CBE016F517F4F87E394E00E94D3
:101E4000592C65E879E087E394E00E94342CE11096
:101E50001EC080E395E70E94710A811118C066E0F8
:101E600079E002C06BEF78E087E394E00E94342CC5
:101E7000CF5FDE4F0FB6F894DEBF0FBECDBFDF9150
:101E8000CF911F910F91FF90EF90DF900895AE01D9
:101E90004F5F5F4F602F81E393E00E9447248AA148
:101EA00081110DC089A181110AC0BE016D5D7F4FF6
:101EB00089E894E00E94592C60E879E093C00E9480
:101EC0005F0A92E0F91619F084E1F81221C0BE0110
:101ED0006D5D7F4F89E894E00E94592C6BE779E0B3
:101EE00087E394E00E94342C92E0F91211C069A1BA
:101EF00089E894E00E94223266E970E080E090E098
:101F00000E948E2B66E779E087E394E00E94342CF0
:101F100081E08D15F8F06AA170E06E5D7F4F81E081
:101F200090E08C0F9D1F680F791F89E894E00E9454
:101F3000592C61E779E087E394E00E94342C92E029
:101F4000F91254C06AE089E894E00E9422326CE6FB
:101F500079E048C083E0F81249C060E679E087E3A1
:101F600094E00E94342C003111052CF460E387E3E7
:101F700094E00E94293140E150E0B80187E394E009
:101F80000E943D2D61E371E087E394E00E94592CAB
:101F9000BE016F517F4F87E394E00E94592C61E5A9
:101FA00079E087E394E00E94342CBE016D5D7F4FA1
:101FB00087E394E00E94592C62E479E087E394E09F
:101FC0000E94342C6AA170E06E5D7F4F81E090E04A
:101FD0008C0F9D1F680F791F87E394E00E94592C96
:101FE0006FE379E087E394E00E94342C87E394E088
:101FF0000E945331892B49F00E945F0A6CE179E01D
:1020000087E394E00E94342CB7CE61E179E02CCFD5
:102010002F923F924F925F926F927F928F929F92F8
:10202000AF92BF92CF92DF92EF92FF920F931F93E6
:10203000CF93DF93CDB7DEB7C056D1090FB6F89472
:10204000DEBF0FBECDBF682E6CED76E087E394E077
:102050000E94762C5E0121E4A20EB11C41E06FE1EA
:10206000C5010E94F90A882309F4AFC0F5018081F7
:10207000811103C069EC76E0AAC0C5010E94510A33
:102080006EEB76E087E394E00E94762CF5010190F8
:102090000020E9F79F01215031097901EA18FB0876
:1020A000C12CD12C712C4E0131E2830E911C10E217
:1020B000412EFF243C2CA4016C2D81E393E00E946F
:1020C000FC23882309F454C0F40101900020E9F7AF
:1020D0008F010150110908191909F401DE01119647
:1020E000842D01900D928A95E1F7CE0101960E9410
:1020F000510A212C11270E191F09822D90E0081773
:102100001907B4F1A701B50121E030E02C0F3D1F04
:10211000820F931F0E948334892B41F5739466EBE1
:1021200076E087E394E00E94342C30E1C316D104BA
:102130002CF460E387E394E00E94293140E150E011
:10214000B60187E394E00E943D2D62EB76E087E3E1
:1021500094E00E94342CB40187E394E00E94592C4F
:1021600087E394E00E94622C532C02C02394C5CFD5
:102170008FEFC81AD80AC11491E0D90609F09ACF96
:10218000772051F0E1E07E120AC0652D70E040E05A
:10219000862D0E949F0E1FC063EA76E018C06BE98F
:1021A00076E087E394E00E94342C4AE050E0672D0B
:1021B00087E394E00E94522D66E976E087E394E09D
:1021C0000E94342C6FE776E002C067E676E087E392
:1021D00094E00E94342CC05ADF4F0FB6F894DEBF53
:1021E0000FBECDBFDF91CF911F910F91FF90EF9068
:1021F000DF90CF90BF90AF909F908F907F906F9027
:102200005F904F903F902F90089587E394E00E9455
:10221000EC31882331F187E394E00E945331892B1C
:10222000A1F387E394E00E943F31089761F468E0EE
:1022300087E394E00E94293160E287E394E00E9402
:10224000293168E005C087E394E00E943F31682FA0
:1022500087E394E00E94293187E394E00E94633190
:1022600008958FEF08951F93CF93DF9365E37AE08E
:1022700087E394E00E94342C8FEF9FEF0E94710A55
:102280008823B1F161E27AE087E394E00E94342C84
:102290006BE371E089E894E00E94592CC2EAD1E036
:1022A0001991612F87E394E00E945B2C6AE070E053
:1022B00080E090E00E948E2B612F89E894E00E94DC
:1022C0009A32612F89E894E00E94183281E0C03C84
:1022D000D80731F763EE79E087E394E00E94342C6D
:1022E0000E94051191E0893709F090E0892F06C01E
:1022F00065ED79E087E394E00E94342CDF91CF9183
:102300001F910895CF9369EA7BE087E394E00E94F0
:10231000762C0E94C60966EA7BE087E394E00E947F
:10232000342C0E9405118153833038F4E82FF0E0FB
:10233000EF59FE4FC081C83C39F463E97BE087E385
:1023400094E00E94762C15C06C2F84E294E00E94E9
:102350006D290E943311882361F06C2F81E393E093
:102360000E948A2669E87BE087E394E0CF910C9491
:10237000762C87E394E00E94622CC5CFCF93DF9345
:10238000CDB7DEB7C254D1090FB6F894DEBF0FBE89
:10239000CDBF62E77BE087E394E00E94762C62E1A8
:1023A0007BE087E394E00E94762C6DE07BE087E39E
:1023B00094E00E94342C40E060E2CE0182960E94BC
:1023C000F90A882309F441C063E07BE087E394E0E5
:1023D0000E94342C40E060E2CE0101960E94F90A8E
:1023E000882399F140E250E0BE016F5F7F4FCE013C
:1023F00082960E948334892B41F569EE7AE087E367
:1024000094E00E94762C41E06FE1CE0101960E949B
:10241000F90A882391F387E394E00E94622C0E94DA
:102420008211AE014F5F5F4FBE016E5D7F4F81E352
:1024300093E00E944A27CE5BDF4F0FB6F894DEBFD1
:102440000FBECDBFDF91CF91089569EF7AE0A9CF9C
:10245000DF92EF92FF920F931F93CF93DF93CDB74D
:10246000DEB7C154D1090FB6F894DEBF0FBECDBFA1
:10247000D82ECE0101967C0181E2F70111928A9556
:10248000E9F78E010E5D1F4F80E2F80111928A95E7
:10249000E9F7D1100E94B009B80181E393E00E94EE
:1024A0003723811109C06CEC7AE087E394E00E9445
:1024B000762C0E94BE113BC0DD2081F06BE787E3E4
:1024C00094E00E942931B80187E394E00E94592CDE
:1024D00063EC7AE087E394E00E94342C40E060E211
:1024E000C7010E94F90AB70181E393E00E948223A9
:1024F000882391F0DD20C9F067EB7AE087E394E070
:102500000E94762C81E393E00E94A126682F84E24A
:1025100094E00E946D2909C0DD2049F06CEA7AE060
:1025200087E394E00E94762C02C081E001C080E045
:10253000CF5BDF4F0FB6F894DEBF0FBECDBFDF918C
:10254000CF911F910F91FF90EF90DF9008950F931F
:102550001F93CF93DF9300D0CDB7DEB710E00E947A
:102560000511082F883019F41111F8CF19C00E94F5
:10257000260A8823A9F0E1E0F0E0EC0FFD1FE10F4F
:10258000F11D0083113011F011E0E9CF87E394E0F1
:102590000E94622CCE0101960E94330A90E002C094
:1025A0008FEF9FEF0F900F90DF91CF911F910F91C1
:1025B00008950F931F93CF93DF93CDB7DEB7C05E1F
:1025C000D1090FB6F894DEBF0FBECDBF0E94A7128F
:1025D0008C010F3F8FEF180761F1AE014F5F5F4F26
:1025E000602F81E393E00E94FC238823E1F0AE0199
:1025F0004F5F5F4F602F81E393E00E94472489A1E2
:10260000811103C08AA1882331F060E377E087E37A
:1026100094E00E94762C112710930B0100930A017D
:102620006AE277E008C062E277E087E394E00E9424
:10263000762C6AE177E087E394E00E94762CC05222
:10264000DF4F0FB6F894DEBF0FBECDBFDF91CF9145
:102650001F910F910895EF92FF920F931F93CF93C5
:10266000DF93CDB7DEB7CA5FD1090FB6F894DEBFEE
:102670000FBECDBF8C018F3F2FEF920799F481E3FE
:1026800093E00E9452268C01811531E0930719F4E2
:1026900062EF78E024C188E893E10E94710A882300
:1026A00009F4E1C06BED78E087E394E00E94762CBA
:1026B00041E06FE1CE0101960E94F90A882309F4F6
:1026C000D2C063ED78E087E394E00E94762C7E012F
:1026D00083E2E80EF11C41E06DEBC7010E94F90AAC
:1026E000882309F4C0C0F70101900020E9F7319771
:1026F000EE19FF0981E08E0F8AA38CEBF82EFE1AEB
:102700006BEA78E087E394E00E94342C0E94051184
:10271000813319F560EA78E087E394E00E94342C75
:102720004AE050E06F2D87E394E00E94522D6DE95E
:1027300078E087E394E00E94762C8AA190E082966C
:1027400040E06F2D21E030E02C0F3D1F820F931FE2
:102750000E94F90A81118AC086C0823309F083C0C1
:1027600062E978E087E394E00E94342C4AE050E08C
:102770006F2D87E394E00E94522D6FE878E087E3A5
:1027800094E00E94762C41E063E0CE018A509F4F96
:102790000E94F90A882309F466C0CE018A509F4F2F
:1027A0000E9465346F2D70E0681779070CF45BC0E8
:1027B000181619060CF057C0CA50DF4F8881C65F43
:1027C000D040882309F44FC06EE578E087E394E0B9
:1027D0000E94342C0E9405119FEC980F933008F052
:1027E00042C020ED280F2230E1F46AE478E087E36C
:1027F00094E00E94762C41E064E1CE018F519F4F1E
:102800000E94F90A882379F1CE018A509F4F0E94D5
:102810006534EAA1F0E0B2969E012F513F4F40E0AF
:1028200018C0CE018A509F4FC650DF4F2883CA5F21
:10283000D0400E94653441E0C650DF4F2881CA5F16
:10284000D040213009F040E0EAA1F0E0B29620E06B
:1028500030E0682F81E090E08C0F9D1F8E0F9F1F4E
:102860000E94E40C03C061EF77E039C065E178E0D5
:1028700087E394E00E94342C0E940511805381303C
:1028800011F489E00EC0823011F48AE00AC083306E
:1028900051F761E178E087E394E00E94342C0E94D4
:1028A000051189A362E078E087E394E00E94342C6C
:1028B00040E150E0B80187E394E00E943D2D69E3D8
:1028C00071E087E394E00E94882CAE014F5F5F4F78
:1028D000602F81E393E00E94FB246BEF77E087E3B6
:1028E00094E00E94762CC650DF4F0FB6F894DEBFFE
:1028F0000FBECDBFDF91CF911F910F91FF90EF9051
:102900000895FF920F931F93CF93DF93CDB7DEB758
:10291000DA950FB6F894DEBF0FBECDBFF82E0E9439
:10292000A7128C010F3F8FEF180709F454C0AE01B6
:102930004F515F4F602F81E393E00E94FC23882377
:1029400009F446C0FF2019F060E777E002C06BE6AB
:1029500077E087E394E00E94342CBE016F517F4FF3
:1029600087E394E00E94592C62E677E087E394E0E5
:102970000E94762C0E940511893769F588E893E159
:102980000E94710A882339F1AE014F5F5F4F602FBB
:1029900081E393E00E944724602F81E393E00E944B
:1029A0004925FF2071F089A1811107C08AA18111F9
:1029B00004C0C8010E94C00B14C0C8010E942B13A0
:1029C00010C06FE471E087E394E00E94592C09C0C5
:1029D0006AE577E002C062E577E087E394E00E9471
:1029E000762CD3950FB6F894DEBF0FBECDBFDF9126
:1029F000CF911F910F91FF900895CF93DF93CDB7A3
:102A0000DEB7C356D1090FB6F894DEBF0FBECDBFF7
:102A10000E94B00964EB75E087E394E00E94342CD7
:102A20000E940511893709F056C088E893E10E9499
:102A3000710A882309F44FC065EA75E087E394E0E2
:102A40000E94762C40E060E2CE0101960E94F90AD5
:102A5000BE016F5F7F4F81E393E00E948223882352
:102A6000D1F16AE975E087E394E00E94762C40E0BA
:102A700060E2CE018D5B9F4F0E94F90A882359F1D5
:102A800060E975E087E394E00E94342C40E060E266
:102A9000CE0182960E94F90A8823E9F040E250E0D4
:102AA000BE016E5D7F4FCE018D5B9F4F0E948334D0
:102AB000892B89F46BE775E087E394E00E94762C1C
:102AC000AE014F5F5F4FBE016D5B7F4F81E393E0CF
:102AD0000E94B82606C061E775E087E394E00E9493
:102AE000762CCD59DF4F0FB6F894DEBF0FBECDBFA9
:102AF000DF91CF9108958F929F92AF92BF92CF9224
:102B0000DF92EF92FF920F931F93CF93DF93CDB796
:102B1000DEB7A1970FB6F894DEBF0FBECDBF882EEB
:102B200080911302811101C084E099249A94980E37
:102B3000E92DF0E0EC5EFD4F8081882309F4B0C000
:102B400064E675E087E394E00E94762C34E1A32EDE
:102B500032E0B32E0BE012E07501C12CD12C8FEFC7
:102B6000C81AD80AF7018081882309F46AC08E2D1B
:102B70008A19981203C061E675E002C06EE575E03F
:102B800087E394E00E94342C4AE050E0B60187E3EA
:102B900094E00E943D2D6AE575E087E394E00E9491
:102BA000342CF801208131812031310528F460E393
:102BB00087E394E00E942931F8016081718140E14E
:102BC00050E087E394E00E94592DAE014F5F5F4FC4
:102BD000F801608181E393E00E94FC2365E575E0E4
:102BE00087E394E00E94342CBE016F5F7F4F87E340
:102BF00094E00E949A0962E575E087E394E00E9400
:102C0000342CF7018081823069F028F4813099F406
:102C10006EE475E00CC0833041F0843161F460E50E
:102C200075E005C066E475E002C061E475E087E325
:102C300094E00E94342C6DE375E087E394E00E94F9
:102C4000342CFFEFEF1AFF0A0E5F1F4F84E0C81607
:102C5000D10409F084CF882091F063E375E087E325
:102C600094E00E94342C0E9405119FEC980F943040
:102C700028F08D3021F068E275E014C0992E892D7E
:102C800090E0FC01EE0FFF1FE55FFD4F6081718159
:102C9000FC01EC5EFD4F40E080810E949F0E06C06B
:102CA00069E175E087E394E00E94342CA1960FB6A9
:102CB000F894DEBF0FBECDBFDF91CF911F910F9172
:102CC000FF90EF90DF90CF90BF90AF909F908F904C
:102CD0000895CF92DF92EF920F931F93CF93DF93DC
:102CE00000D000D0CDB7DEB78FEF9FEF90930B01F0
:102CF00080930A0187E394E00E94EC318823D1F3AA
:102D00000E94B0090E94FE0980E090E00E94AF346A
:102D1000863431F062E075E087E394E00E94762C1F
:102D200061EF74E087E394E00E94342C8FEF9FEF13
:102D30000E94710A882309F44CC261E083E294E0A6
:102D40000E94CA2881E00E942812811106C060E01A
:102D500083E294E00E94CA283CC26AED74E087E3F3
:102D600094E00E94342C18EC00E0E12C87E394E01E
:102D70000E94EC31882359F387E394E00E94533199
:102D8000892B09F4E8C1CE2CD12C87E394E00E9472
:102D90006331E1E0F0E0EC0FFD1FEC0DFD1D8083E1
:102DA00090EE980F9F3528F4682F87E394E00E94F7
:102DB0002931E1E0F0E0EC0FFD1FEC0DFD1D8081FD
:102DC000883089F46DE087E394E00E9429316BE15B
:102DD00087E394E00E9429316BE571E087E394E09A
:102DE0000E949A09B5C1E39481E0E8128BC0198171
:102DF000103229F40E94B00966E274E050C0153721
:102E000059F465E287E394E00E9429310E94A712F9
:102E100040E0BC0184E10CC0103769F465E287E34F
:102E200094E00E9429310E94A71240E0BC0181E099
:102E30000E949F0E8DC1133759F465E287E394E039
:102E40000E9429310E94A71240E0BC0183E0F0CF2C
:102E50001A3611F48FEF03C01C3621F481E00E9472
:102E6000840D76C11B3611F480E0F9CF113789F457
:102E70000E94B00981E393E00E94FA236FE174E0BD
:102E800087E394E00E94342C64EF71E080E090E0EE
:102E900089C0183649F40E94B00960E872E087E3FF
:102EA00094E00E94342C54C1812F0E94260A811183
:102EB0004BC1153219F466E372E0F1CF183709F40B
:102EC00045C11D3041F468E272E087E394E00E945E
:102ED000342C03E13EC1183541F461E272E087E32E
:102EE00094E00E94762C02E134C1123711F481E0A3
:102EF00003C0123521F480E00E947B1529C164E1F2
:102F000072E0CDCF82E0E81224C1023079F48A81E8
:102F10000E94260A882309F41BC1CE0101960E9453
:102F2000330A682F70E040E082E082CF013109F07F
:102F300092C08A81992787FD9095A92FB92FFC010E
:102F4000E156F109E531F10508F07CC0EA5AFF4F7E
:102F50000C94D4338FEF9FEF0E942B1379C08FEF27
:102F60009FEF0E94C00B74C00E94B00962EE71E036
:102F700087E394E00E94342C0E940511893709F000
:102F800010C188E893E10E94710A8111F1C009C162
:102F900067EB71E087E394E00E94342C68EE73E005
:102FA00080E090E00E948E2B14C10E94FD1450C05E
:102FB0006FE571E087E394E00E94592C80E006C041
:102FC00065E287E394E00E945B2C81E00E9481141B
:102FD0003FC06AE387E394E00E945B2C0E94A90C47
:102FE00037C065E287E394E00E945B2C0E94D9120F
:102FF0002FC00E9482112CC06DE671E087E394E03F
:103000000E94342C8FEF9FEF0E94710A882369F091
:1030100066E480E090E00E94B7346BE481E090E0E9
:103020000E94B73464E671E00FC060E080E090E099
:103030000E94B73460E081E090E00E94B73469E517
:1030400071E002C06FE471E087E394E00E94762CA7
:103050006BE471E024CF0331B1F48A81853711F438
:1030600084E10BC0803711F481E007C08D3011F48A
:1030700082E003C0833721F483E00E94081068C017
:103080006EE371E00CCF023109F062C08A818936AB
:1030900049F01CF4853601F15BC08C36D9F18237DA
:1030A000E1F156C068E371E087E394E00E94762C7A
:1030B00088E893E10E94710A882359F063E371E084
:1030C00087E394E00E94762C81E393E00E94272816
:1030D00080C06EE271E019C068E271E087E394E0BD
:1030E0000E94762C88E893E10E94710A882359F0A7
:1030F00063E271E087E394E00E94762C81E393E041
:103100000E94C72725C06EE171E087E394E00E942A
:10311000762C1EC00E944B0E1BC087E394E00E94D9
:103120005331892BA9F44FEF50E060E070E08AE161
:1031300092E00E947219AB01BC0120E130E087E30C
:1031400094E00E945F2DE9CF02E003C001E101C0DD
:10315000E12C14EF11CE89E00E94552A892B19F435
:10316000112311F103C0112309F400CE1150FECD3B
:1031700081E393E00E94FA2363ED71E087E394E03A
:103180000E94342C80E00E942812882309F400CF8A
:1031900060ED71E087E394E00E94342C0E94BE1140
:1031A00057CF6DEA71E050CF60910A0170910B0129
:1031B0006F3F8FEF780729F041E082E00E949F0E79
:1031C00006C062E171E087E394E00E94762C14E18E
:1031D000CDCD0F900F900F900F90DF91CF911F9159
:1031E0000F91EF90DF90CF900895109246021092C9
:1031F00044021092430210924202F89414BEE0E698
:10320000F0E080818861808380E4808378940895F1
:1032100030E420914202211107C020916000267005
:10322000C1F730936000F5CFAFB7F894E091440256
:1032300024E0E29FF0011124EE5DFD4F40815181B9
:1032400062817381FC014483558366837783209177
:10325000440230E02F5F3F4F277033272093440212
:1032600020914202215020934202AFBFFC016481B1
:1032700075818681978108951F93CF93DF93EC0129
:1032800010911902111106C00E94081968837983F0
:103290008A839B83C10FD11D88811F5F1370109398
:1032A0001902DF91CF911F9108951F93CF93DF9360
:1032B000EC0110911802111106C00E9408196883D0
:1032C00079838A839B83FE01E10FF11DE10FF11DDC
:1032D000808191811F5F117010931802DF91CF914F
:1032E0001F9108958F929F92AF92BF92CF92DF92DB
:1032F000EF92FF92CF93DF93EC016A017B014230A2
:1033000051056105710528F41C821D821E821F82F1
:1033100075C06FEF7FEFCB016C837D838E839F83BE
:103320002FEFC216D104E104F10409F020F56FEF8C
:1033300070E080E090E0A70196010E94933349017C
:103340005A014C815D816E817F814C155D056E0552
:103350007F0508F453C0CE010E943C19682F70E02D
:1033600080E090E0A50194010E9493332C833D837B
:103370004E835F83E6CFC114D10421E0E206F1045D
:1033800010F56FEF7FEF80E090E0A70196010E94BB
:10339000933349015A014C815D816E817F814C15C7
:1033A0005D056E057F0550F1CE010E945519BC01E7
:1033B00080E090E0A50194010E9493332C833D832B
:1033C0004E835F83E8CFA70196010E9493334901A2
:1033D0005A014C815D816E817F814C155D056E05C2
:1033E0007F0560F0CE010E940819A50194010E949A
:1033F00093332C833D834E835F83EBCF6C817D8140
:103400008E819F81DF91CF91FF90EF90DF90CF90E1
:10341000BF90AF909F908F9008951F920F920FB61C
:103420000F9211242F933F934F935F936F937F934A
:103430008F939F93AF93BF93CF93DF93EF93FF93BC
:103440008091460290918400E82FF0E0E95BFD4F07
:1034500090838F5F80934602803208F41AC1909166
:10346000440280914202890F877080934302109238
:10347000450220E0E091430234E0E39FF001112493
:10348000EE5DFD4F80819181A281B381C22FD0E09A
:10349000C95BDD4F3881830F911DA11DB11D808354
:1034A0009183A283B383E091430284E0E89FF0011B
:1034B0001124EE5DFD4F80819181A281B381E09165
:1034C000430234E0E39FF0011124EE5DFD4F4081A3
:1034D000518162817381DAE0880F991FAA1FBB1F97
:1034E000DA95D1F7840F951FA61FB71F80839183AC
:1034F000A283B383E091430284E0E89FF0011124AA
:10350000EE5DFD4F80819181A281B381E091430204
:1035100034E0E39FF0011124EE5DFD4F40815181C5
:103520006281738136E0B695A795979587953A9510
:10353000D1F784279527A627B72780839183A28375
:10354000B3832F5F203208F495CF20934502E0919A
:10355000430284E0E89FF0011124EE5DFD4F80817D
:103560009181A281B381E091430224E0E29FF001C6
:103570001124EE5DFD4F408151816281738123E012
:10358000880F991FAA1FBB1F2A95D1F7840F951F7B
:10359000A61FB71F80839183A283B383E091430268
:1035A00034E0E39FF0011124EE5DFD4F80819181B5
:1035B000A281B381E091430224E0E29FF001112453
:1035C000EE5DFD4F40815181628173813BE0B69594
:1035D000A795979587953A95D1F784279527A6279C
:1035E000B72780839183A283B383E091430234E0C1
:1035F000E39FF0011124EE5DFD4F80819181A28156
:10360000B381E091430224E0E29FF0011124EE5DDA
:10361000FD4F4081518162817381CFE0880F991FF6
:10362000AA1FBB1FCA95D1F7840F951FA61FB71FEE
:1036300080839183A283B383E0914302A0914302EC
:1036400034E0A39FD0011124AE5DBD4F8D919D91BB
:103650000D90BC91A02D24E0E29FF0011124EE5DBD
:10366000FD4F80839183A283B383109246028091A1
:103670004202883049F48091440290E001968770BC
:1036800099278093440205C0809142028F5F809306
:103690004202FF91EF91DF91CF91BF91AF919F9146
:1036A0008F917F916F915F914F913F912F910F90EB
:1036B0000FBE0F901F901895CF93DF93FC01EB0185
:1036C000DA0140962C9138812327208311962C9182
:1036D000119739812327218312962C9112973A81D1
:1036E0002327228313962C9113973B81232723832F
:1036F000349624961496E817F90721F7DF91CF91B5
:103700000895DA01FB01922F960F892F8E1B8430CA
:1037100088F08C91808311968C91119781831296F9
:103720008C911297828313968C911397838334968E
:103730001496EBCFA22FA695A69584E0A89FD00162
:1037400011242370FA01EA0FFB1FA60FB71F2150A7
:1037500018F081918D93FBCF0895FC01DB01409619
:1037600020813C9123272083218111963C91119740
:1037700023272183228112963C91129723272283AB
:10378000238113963C911397232723833496149611
:10379000E817F90729F708952F923F924F925F9209
:1037A0006F927F928F929F92AF92BF92CF92DF9251
:1037B000EF92FF920F931F93CF93DF9300D000D02F
:1037C000CDB7DEB78C014032510521F13CF44031D8
:1037D000510571F048315105A1F025C0403C51051B
:1037E00081F0411581E05807A9F040385105D9F41E
:1037F0008AE090E0D8018D939C9340E1E42EF12C77
:1038000017C08CE090E0F8019183808338E1E32ECB
:10381000F12C0EC08EE090E0D8018D939C9320E2B5
:10382000E22EF12C05C0F801118210828FEF8AC0C0
:10383000D801DC90D394D29480EFD8228E2C2E2DF8
:10384000AB01B8016E5F7F4FC8010E94811B9E2CA7
:1038500020E030E0CC24C3943E01B5E06B0E711C37
:103860009BE1592EB22E622F660F660F762F780DD0
:103870007D1508F066C0DE01119680E090E0A80199
:10388000470F511DFA01E80FF91F3297E081ED93C0
:10389000019684309105B1F7791125C09B2C990CC4
:1038A000980C990C9981EA81F0E0EE50F34F8491E5
:1038B0008C258983EB81F0E0EE50F34FE491EA83AD
:1038C000EC81F0E0EE50F34FE491EB83E92FF0E070
:1038D000EE50F34FE491EC83C7FE03C0CC0CC5243B
:1038E00014C0CC0C12C0E0E2EE16F10471F47F714A
:1038F000703159F4DE011196EC91F0E0EE50F34F87
:10390000E491ED93A615B705B9F7FE01319680E075
:1039100090E05801A60EB11C41901A01280E391EE4
:10392000B501680F791FDB0112966C914626D10113
:1039300012964C9201968430910571F72F5F3F4F9C
:1039400091CF80E00F900F900F900F90DF91CF916B
:103950001F910F91FF90EF90DF90CF90BF90AF90AD
:103960009F908F907F906F905F904F903F902F909F
:10397000089520E030E0FC01E20FF31F12822F5F78
:103980003F4F203F3105B9F7FC01118210820895A5
:103990002F923F924F925F926F927F928F929F925F
:1039A000AF92BF92CF92DF92EF92FF920F931F934D
:1039B000CF93DF93CDB7DEB7A2970FB6F894DEBFF3
:1039C0000FBECDBF8C016A01FC0180819181892BE2
:1039D00009F40CC17801F2E0EF0EF11CA701CE0151
:1039E00041960E945C1B22242394CE0181969AA3C7
:1039F00089A3FBE1BF2E422D50E0F8018081918127
:103A0000481759070CF07FC09E012F5E3F4FDE0123
:103A100014967FE0A72E7AE065E0E1E1F0E0EC0F9C
:103A2000FD1FE60FF11D80806C5F6F70E1E1F0E03B
:103A3000EC0FFD1FE70FF11D80817C5F7F70E1E1DE
:103A4000F0E0EC0FFD1FEA0DF11D9081E4E0AE0EF9
:103A5000FA2DFF70AF2EF9019080E92DF0E0EE50C5
:103A6000F34F9490E82DF0E0EE50F34F8490E82F60
:103A7000F0E0EE50F34F8491E92FF0E0EE50F34F79
:103A80009491692C660C97FC6B24482C440C87FCA1
:103A90004B24582E550C87FD5B24792E770C97FD0F
:103AA0007B24FD013397382E3824392636243424DC
:103AB00030823196382E3924392634243524308208
:103AC00098243196992595259725908389258625D3
:103AD00087258C932C5F3F4F149689A19AA12817B4
:103AE000390709F09ACFE4E0440F551FEA95E1F752
:103AF0004E0D5F1DBE016F5F7F4FCE0141960E944C
:103B00005C1B239478CFE989F0E0EE50F34FE49109
:103B1000E98BED89F0E0EE50F34FE491ED8BE98D08
:103B2000F0E0EE50F34FE491E98FED8DF0E0EE50D0
:103B3000F34FE491ED8F8A89EE89F0E0EE50F34F78
:103B4000E491EA8BEA8DF0E0EE50F34FE491EE8BD6
:103B5000EE8DF0E0EE50F34FE491EA8FE82FF0E0C5
:103B6000EE50F34FE491EE8F8B89EB8DF0E0EE5049
:103B7000F34FE491EB8BE82FF0E0EE50F34FE4913C
:103B8000EB8F8F89EF8DF0E0EE50F34FE491EF8BE8
:103B9000E82FF0E0EE50F34FE491EF8F88A1EC8D29
:103BA000F0E0EE50F34FE491E8A3E88DF0E0EE5042
:103BB000F34FE491EC8FEC89F0E0EE50F34FE49199
:103BC000E88FE82FF0E0EE50F34FE491EC8B64E0E7
:103BD000440F551F6A95E1F74E0D5F1DBE016F5EE4
:103BE0007F4FC6010E945C1B80E001C08FEFA29650
:103BF0000FB6F894DEBF0FBECDBFDF91CF911F91FE
:103C00000F91FF90EF90DF90CF90BF90AF909F907B
:103C10008F907F906F905F904F903F902F9008957E
:103C2000AF92BF92CF92DF92EF92FF920F931F93CA
:103C3000CF93DF935C017B016A01E9012097C9F012
:103C4000B701C8010E94AD1BA801B801C5010E94BF
:103C5000C81C219781110FC020E1A801B601C50140
:103C60000E94811B80E1E80EF11C80E1C80ED11C8E
:103C7000E5CF80E001C08FEFDF91CF911F910F91D1
:103C8000FF90EF90DF90CF90BF90AF9008952F926C
:103C90003F924F925F926F927F928F929F92AF92DC
:103CA000BF92CF92DF92EF92FF920F931F93CF9329
:103CB000DF93CDB7DEB7A7970FB6F894DEBF0FBE80
:103CC000CDBF7C015EA34DA3FC0140815181411514
:103CD000510509F44AC18C010E5F1F4FE4E0440F07
:103CE000551FEA95E1F7400F511FCE0141960E9402
:103CF0005C1BE989F0E0EE50F44FE491E98BED892B
:103D0000F0E0EE50F44FE491ED8BE98DF0E0EE50F1
:103D1000F44FE491E98FED8DF0E0EE50F44FE49133
:103D2000ED8F8E8DEA8DF0E0EE50F44FE491EE8F42
:103D3000EE89F0E0EE50F44FE491EA8FEA89F0E08A
:103D4000EE50F44FE491EE8BE82FF0E0EE50F44F9C
:103D5000E491EA8B8B89EB8DF0E0EE50F44FE49127
:103D6000EB8BE82FF0E0EE50F44FE491EB8F8F896E
:103D7000EF8DF0E0EE50F44FE491EF8BE82FF0E0A0
:103D8000EE50F44FE491EF8F8C89E88DF0E0EE5027
:103D9000F44FE491EC8BEC8DF0E0EE50F44FE491B5
:103DA000E88FE8A1F0E0EE50F44FE491EC8FE82FBB
:103DB000F0E0EE50F44FE491E8A3F701F081612CBC
:103DC000712CF150FFA3FBE1FF2E8FA18619A801F2
:103DD00009F4C2C020E1829F400D511D1124BE0193
:103DE0006F5E7F4FCE0101960E945C1BDE01149630
:103DF000AE014F5E5F4F2A0185E090E0FD013397F1
:103E0000C0803196D0803196E081AC903C2D330F4C
:103E1000C7FC3F255D2D550FD7FC5F254E2F440F66
:103E2000E7FD4F252A2D220FA7FC2F25E32EEE0CB0
:103E300037FDEF24F52FFF0F57FDFF25742F770F68
:103E400047FD7F25622F660F27FD6F252E2C220C44
:103E5000E7FC2F243F2E330CF7FD3F24872E880CE0
:103E600077FD8F24962E990C67FD9F24B22CBC24DD
:103E7000B9A2B32CBD24BAA2B82CBE26BBA2B92CC1
:103E8000BA24BCA2E2243F2678256925E327E5274A
:103E9000EE25BAA0EB25E727BCA0EB25F0E0EE501D
:103EA000F44FB490F201B0825A255427A9A05A25A4
:103EB0005325BBA05B255627E52FF0E0EE50F44FCD
:103EC0005491FC01EF70FF270F2EF1E1AF2EB12CC2
:103ED000F02DAC0EBD1EEA0DFB1D50834C25422774
:103EE0004E25BAA04B2547275CA14527E42FF0E0DB
:103EF000EE50F44F4491FC013596EF70FF2751E1ED
:103F0000A52EB12CAC0EBD1EEA0DFB1D40833D2538
:103F10003227B9A03B2533252BA132273627E32FA3
:103F2000F0E0EE50F44F3491FC013A96EF70FF2729
:103F300041E150E04C0F5D1FE40FF51F30831496F4
:103F400054E0450E511C04968531910509F056CF79
:103F50008FEF681A780A39CFBE016F5E7F4F8DA14F
:103F60009EA10E945C1B80E001C08FEFA7960FB658
:103F7000F894DEBF0FBECDBFDF91CF911F910F919F
:103F8000FF90EF90DF90CF90BF90AF909F908F9079
:103F90007F906F905F904F903F902F9008958F92F9
:103FA0009F92AF92BF92CF92DF92EF92FF920F93C8
:103FB0001F93CF93DF93CDB7DEB760970FB6F8941A
:103FC000DEBF0FBECDBF4C016B015A017901E11478
:103FD000F10439F120E1A601BE016F5F7F4FC401FA
:103FE0000E94811BA501B601C4010E94471E91E0F9
:103FF000E91AF108882311F08FEF14C0B801C50148
:104000000E94AD1B20E1AE014F5F5F4FB801C401BC
:104010000E94811B80E1A80EB11C90E1C90ED11C49
:10402000D6CF80E060960FB6F894DEBF0FBECDBF4E
:10403000DF91CF911F910F91FF90EF90DF90CF9084
:10404000BF90AF909F908F9008958091990290E0DB
:1040500020919A02821B9109089520919A028091E1
:104060009902281750F4E22FF0E0E556FD4F8081C9
:1040700090E02F5F20939A0208958FEF9FEF0895AD
:10408000E0919A0280919902E81730F4F0E0E55649
:10409000FD4F808190E008958FEF9FEF0895089580
:1040A000CF92DF92EF92FF920F931F93CF93DF9304
:1040B0007C01CB018A0120917302222389F0EB015C
:1040C0006B01C40ED51ECC15DD0569F06991D701D1
:1040D000ED91FC910190F081E02DC7010995F3CF9E
:1040E000642F0E94C421C801DF91CF911F910F91CD
:1040F000FF90EF90DF90CF900895CF93DF931F92C2
:10410000CDB7DEB76983209173022223D1F02091CD
:104110007402223240F021E030E0FC01338322833C
:1041200080E090E015C080917502E82FF0E0EA5839
:10413000FD4F998190838F5F809375028093740205
:1041400005C061E0CE0101960E94C42181E090E0AB
:104150000F90DF91CF910895FC011382128248EEF7
:1041600053E060E070E044835583668377838CEC92
:1041700091E091838083089510929A02109299029F
:1041800010927502109274020C940F219A01AB01E7
:1041900060E074E284EF90E00E9493332051310993
:1041A0004109510956954795379527952093B800B1
:1041B0000895862F433208F042E26BE972E00E94D4
:1041C0002D2110929A0280939902089521E00C9477
:1041D000D92081E080937302609398021092750257
:1041E0001092740208950C94E9200F93062F21E099
:1041F0004091740266E772E0809198020E947121FA
:104200001092750210927402109273020F91089529
:1042100061E00C94F52087E692E00C94AC201092BB
:10422000300381E080932E0310922D0361E082E041
:104230000E941F2A61E083E00E941F2AE9EBF0E060
:1042400080818E7F808380818D7F808388E48093CE
:10425000B80085E48093BC000895433208F03FC065
:10426000909130039111FCCF91E090933003209313
:104270002E032FEF2093BD0210920603240F2093EC
:10428000050390932F0390912F03880F892B809320
:104290002F0380912D03813041F410922D038091E2
:1042A0002F038093BB0085EC01C085EE8093BC009A
:1042B000809130038130E1F380910603841710F47C
:1042C0004091060327E033E0FB01D9018A2F821BCE
:1042D000841718F48D918193F9CF842F089580E08D
:1042E00008950F93433208F046C090913003911126
:1042F000FCCF92E09093300300932E039FEF9093B6
:10430000BD021092060340930503FB0167E073E0D2
:10431000DB019A2F961B941718F491919D93F9CF76
:1043200010922F0390912F03880F892B80932F03D6
:1043300080912D03813041F410922D0380912F0341
:104340008093BB0085EC01C085EE8093BC002223E6
:1043500021F0809130038230E1F38091BD028F3FE4
:1043600061F08091BD02803251F08091BD028033B6
:1043700041F483E007C081E005C080E003C082E033
:1043800001C084E00F910895633298F420913003C6
:10439000243089F46093E102FC0183EE92E0DC01B9
:1043A0002A2F281B261718F421912D93F9CF80E08E
:1043B000089581E0089582E0089585ED8093BC0022
:1043C0008091BC0084FDFCCF10923003089585ECF1
:1043D0008093BC001092300308951F920F920FB685
:1043E0000F9211242F933F934F935F936F937F937B
:1043F0008F939F93AF93BF93EF93FF938091B900F7
:10440000887F803609F49CC068F5883209F45BC067
:1044100090F4803109F454C038F4882309F4F5C0CD
:10442000883009F44DC0F5C0883109F44CC08032A1
:1044300009F45DC0EEC0803409F468C048F48033EC
:1044400009F455C0883309F0E4C08093BD02A8C0C8
:10445000803509F44FC0883509F45DC0883409F00F
:10446000D8C0D5C0883909F4C6C0A8F4883709F483
:1044700067C038F4883609F463C0803709F460C037
:10448000C8C0883809F4B7C0803909F45FC08038E3
:1044900009F0BFC05BC0803B09F485C038F4803AA6
:1044A00009F466C0883A09F47EC0B3C0803C09F4C0
:1044B000A6C0883C09F4A3C0883B09F489C0A9C000
:1044C00080912F0310C090910603809105039817E7
:1044D00070F5E091060381E08E0F80930603F0E013
:1044E000E95FFC4F80818093BB0085EC85C08093A1
:1044F000BD028DC0E091060381E08E0F809306031C
:104500008091BB00F0E0E95FFC4F8083909106034F
:10451000809105036DC0E091060381E08E0F8093CA
:1045200006038091BB00F0E0E95FFC4F808380913F
:104530002E0381116CC081E080932D0384EA60C05A
:1045400083E0809330031092BE02CFCF8091BE02F1
:10455000823208F050C0E091BE0281E08E0F80935D
:10456000BE028091BB00F0E0E154FD4F8083BDCFDF
:104570008091BE02823230F4E091BE02F0E0E1545C
:10458000FD4F10820E94DD216091BE0270E0E0913B
:104590002903F0912A038FEB92E009951092BE0255
:1045A0000E94E72136C084E0809330031092E2023B
:1045B0001092E102E0912B03F0912C030995809178
:1045C000E102811105C081E08093E1021092E302D3
:1045D000E091E20281E08E0F8093E202F0E0ED5183
:1045E000FD4F80818093BB009091E2028091E102B7
:1045F000981708F47ACF85E88093BC000AC085EC50
:104600008093BC001092300304C01092BD020E943F
:10461000DD21FF91EF91BF91AF919F918F917F919C
:104620006F915F914F913F912F910F900FBE0F901F
:104630001F90189530E020E0FC014191CF01242B20
:104640003F5F3031C9F781E0211180E008950F9379
:10465000AB0120EF829FC0011124BC017B5F00E011
:1046600020E183E294E00E94F7280F910895EF92F1
:10467000FF920F93CF93DF93CDB7DEB72C970FB692
:10468000F894DEBF0FBECDBF7B0100E02CE0AE0191
:104690004F5F5F4F60E070E083E294E00E94F72894
:1046A000DE011196E0E5FEE09E01235F3F4F4D9154
:1046B000549145130EC03196A217B307C1F700E01D
:1046C00020E2A701BC0183E294E00E94F72881E088
:1046D00001C080E02C960FB6F894DEBF0FBECDBFB0
:1046E000DF91CF910F91FF90EF9008950F93AB0161
:1046F00001E020E26CE070E083E294E00E94F728A1
:104700000F9108958F929F92AF92BF92CF92DF92B6
:10471000EF92FF920F931F93CF93DF93CDB7DEB746
:10472000C055D1090FB6F894DEBF0FBECDBF6C01E6
:104730004B0100E020E1AE014F5B5F4F6CE270E0A7
:1047400083E294E00E94F7285E0121E2A20EB11CF0
:1047500020E2A501BC0183E294E00E94F72820E258
:10476000AE014F5F5F4FBC0183E294E00E94F728E7
:10477000CE0101967C01F401D7019D917D018081DC
:1047800089278193AA15BB05B9F740E051E0B40130
:10479000C6010E94CC1B8E010F5B1F4F22E030E050
:1047A000A701B701C6010E94CF1F81110EC0F701FA
:1047B0009701205E3F4FD40181E041919D914913C3
:1047C00080E0E217F307C9F701C080E0C05BDF4F6C
:1047D0000FB6F894DEBF0FBECDBFDF91CF911F9112
:1047E0000F91FF90EF90DF90CF90BF90AF909F9090
:1047F0008F9008950C94B91CAF92BF92CF92DF9224
:10480000EF92FF920F931F93CF93DF93CDB7DEB755
:10481000E0970FB6F894DEBF0FBECDBF7C01862FA8
:104820006A01BE016F5D7F4F0E9427235C01CE01AC
:1048300081960E941A23811118C000E020E2AE0187
:104840004F5F5F4FB50183E294E00E94F7288E012D
:104850000F5D1F4F22E030E0A601BE016F5F7F4F6A
:10486000C7010E94CF1F81E001C080E0E0960FB633
:10487000F894DEBF0FBECDBFDF91CF911F910F9196
:10488000FF90EF90DF90CF90BF90AF900895AF92E0
:10489000BF92CF92DF92EF92FF920F931F93CF932D
:1048A000DF93CDB7DEB760970FB6F894DEBF0FBECB
:1048B000CDBF6C01862F7A01BE016F5F7F4F0E94D2
:1048C00027235C01CE0101960E941A23811114C096
:1048D00000E020EEA701B50183E294E00E94F728F2
:1048E0008E010F5F1F4F2EE030E0A701B701C60118
:1048F0000E94CF1F81E001C080E060960FB6F8945F
:10490000DEBF0FBECDBFDF91CF911F910F91FF9002
:10491000EF90DF90CF90BF90AF900895DF92EF922D
:10492000FF920F931F93CF93DF93CDB7DEB76097BE
:104930000FB6F894DEBF0FBECDBF7B01D12CFFE0D8
:10494000FD15C0F06AEF70E08AE00E947E2A8701C0
:104950000D0D111D4FEF50E060E070E08AE192E034
:104960000E947219F801608361E08AE00E941F2AA8
:10497000D394E5CFC7010E941A23D82E00E020E18E
:10498000AE014F5F5F4F6CE270E083E294E00E9403
:10499000F72840E150E0B701CE0101960E94833430
:1049A000892B11F4D12CCECF00E010E0BE016F5F57
:1049B0007F4F802F0E94272340E150E0B701CE01B6
:1049C00001960E948334892B69F30F5F1F4F0115F5
:1049D00081E0180759F7D110E5CF60960FB6F8942B
:1049E000DEBF0FBECDBFDF91CF911F910F91FF9022
:1049F000EF90DF900895AF92BF92CF92DF92EF9247
:104A0000FF920F931F93CF93DF93CDB7DEB76097DD
:104A10000FB6F894DEBF0FBECDBF6C017A0180EFF8
:104A2000689F500111248BEFB81ABE016F5F7F4F52
:104A3000C6010E948E2401E020E1AE014F5F5F4F6E
:104A4000B50183E294E00E94F7285C018E010F5FBC
:104A50001F4F2EE030E0A701B701C6010E94101ED3
:104A600001E020EEA701B50183E294E00E94F7285F
:104A700060960FB6F894DEBF0FBECDBFDF91CF9129
:104A80001F910F91FF90EF90DF90CF90BF90AF906C
:104A900008957F928F929F92AF92BF92CF92DF92B2
:104AA000EF92FF920F931F93CF93DF93CDB7DEB7B3
:104AB000C05CD1400FB6F894DEBF0FBECDBF5C0125
:104AC000762E20EF629FC0011124BC017B5F7E0126
:104AD00081EEE80EF11C20E1F70111922A95E9F729
:104AE00001E020E1A70183E294E00E94F7286C0135
:104AF00087014E01FFE38F1AFEEF9F0A6FEF70E010
:104B000080E090E00E940333F80161938F01E81583
:104B1000F905A1F701E020EEA701B60183E294E0D8
:104B20000E94F72800E020EEAE014F5F5F4FB60114
:104B300083E294E00E94F72840EE50E0BE016F5FF0
:104B40007F4FC7010E948334892B61F068ED71E0CB
:104B5000C7010E94A034F70111A2A701672DC5016A
:104B60000E94FB24C054DE4F0FB6F894DEBF0FBE88
:104B7000CDBFDF91CF911F910F91FF90EF90DF900C
:104B8000CF90BF90AF909F908F907F900895AF92FD
:104B9000BF92CF92DF92EF92FF920F931F93CF932A
:104BA000DF93CDB7DEB7C055D1090FB6F894DEBF9D
:104BB0000FBECDBF6C015B01BE016F5F7F4F0E94D6
:104BC0008E24BE016F5E7F4FC6010E948E24CE01EF
:104BD00001967C01F5018096D7013D917D012081F0
:104BE00023272193A817B907B9F7BE016F5B7F4F41
:104BF000C6010E948E2401E020E1AE014F5B5F4FB1
:104C00006CE270E083E294E00E94F72840E051E01B
:104C1000B501C6010E94CC1B8E010F5B1F4F22E025
:104C200030E0A701B501C6010E94101E01E020E29C
:104C3000A7016CE370E083E294E00E94F72820E291
:104C4000AE014F5F5F4F6CE570E083E294E00E943D
:104C5000F728C05BDF4F0FB6F894DEBF0FBECDBFA5
:104C6000DF91CF911F910F91FF90EF90DF90CF9048
:104C7000BF90AF900895FB0180E06CE8415088F050
:104C8000519198E0752F7827282F30E0359527959A
:104C9000822F70FF02C0862F82275695915091F780
:104CA000EDCF0895EF92FF920F931F93CF93DF9371
:104CB000CDB7DEB760970FB6F894DEBF0FBECDBF9D
:104CC00000E010E07E0181E1E80EF11CBE016F5FA3
:104CD0007F4F802F0E942723FE01319680E0919123
:104CE000892BEE15FF05D9F7882331F00F5F1F4F91
:104CF000011581E0180751F7C80160960FB6F894C6
:104D0000DEBF0FBECDBFDF91CF911F910F91FF90FE
:104D1000EF9008950F93CF93DF931F92CDB7DEB737
:104D2000698301E021E0AE014F5F5F4F6CE770E007
:104D300083E294E00E94F7280F90DF91CF910F91CA
:104D400008950F93CF93DF931F92CDB7DEB700E0A6
:104D500021E0AE014F5F5F4F6CE770E083E294E0CB
:104D60000E94F72889810F90DF91CF910F910895CC
:104D7000AF92BF92CF92DF92EF92FF920F931F9369
:104D8000CF93DF93CDB7DEB7DA950FB6F894DEBFD9
:104D90000FBECDBF7C016B015A016DE37EE087E35E
:104DA00094E00E94762CB601C7010E94C72561E3FA
:104DB0007EE087E394E00E94762C00E010E06DE056
:104DC00087E394E00E9429314AE050E0B80187E38C
:104DD00094E00E94592D6FE287E394E00E9429310C
:104DE0004AE050E06FEF70E087E394E00E943D2DD1
:104DF000AE014F515F4F602FC7010E94FC238823F3
:104E0000D1F040E051E0B501C7010E94CC1BAE01DA
:104E10004F5F5F4F602FC7010E94472440E051E081
:104E2000B601C7010E94CC1BAE014F5F5F4F602FE0
:104E3000C7010E94FB240F5F1F4F011581E0180777
:104E400009F0BDCF80E2D601E82F1D92EA95E9F77F
:104E5000D5011D928A95E9F7FE01319680EEDF01BA
:104E60001D928A95E9F767E27EE087E394E00E946D
:104E7000762CD3950FB6F894DEBF0FBECDBFDF9171
:104E8000CF911F910F91FF90EF90DF90CF90BF9047
:104E9000AF900895AF92BF92CF92DF92EF92FF92C0
:104EA0000F931F93CF93DF93CDB7DEB72C970FB639
:104EB000F894DEBF0FBECDBF7C015B016A016BE1E0
:104EC0007EE087E394E00E94762C00E010E06DE045
:104ED00087E394E00E9429314AE050E0B80187E37B
:104EE00094E00E94592D6FE287E394E00E942931FB
:104EF0004AE050E06FEF70E087E394E00E943D2DC0
:104F0000602FC7010E9449250F5F1F4F011581E0E7
:104F10001807E9F66EE07EE087E394E00E94342C07
:104F2000B501C7010E94C725E0E5FEE0DE0111964C
:104F3000AD0184918D9331968EE0EC35F807C9F779
:104F400001E02CE060E070E083E294E00E94F7284A
:104F500020E2A6016CE070E083E294E00E94F72872
:104F600060E07EE087E394E00E94762C2C960FB6FA
:104F7000F894DEBF0FBECDBFDF91CF911F910F918F
:104F8000FF90EF90DF90CF90BF90AF900895AF92D9
:104F9000BF92CF92DF92EF92FF920F931F93CF9326
:104FA000DF93CDB7DEB7A0970FB6F894DEBF0FBE84
:104FB000CDBF6C0168EF7DE087E394E00E94342C64
:104FC000E12CF12C5E0181E2A80EB11C00E020E290
:104FD000AE014F5F5F4FB70183E294E00E94F72874
:104FE0008E010F5F1F4FF80161918F0187E394E0FD
:104FF0000E9429310A151B05B1F740E2BE016F5F1F
:105000007F4FC6010E943B26682F87E394E00E94F1
:105010002931F0E2EF0EF11CE1148AEFF806B1F647
:1050200062EF7DE087E394E00E94342CA0960FB6F7
:10503000F894DEBF0FBECDBFDF91CF911F910F91CE
:10504000FF90EF90DF90CF90BF90AF900895CF92F8
:10505000DF92EF92FF920F931F93CF93DF93CDB721
:10506000DEB7A0970FB6F894DEBF0FBECDBF6C01C0
:1050700040E355E760E070E087E394E00E94553339
:10508000E12CF12C6EED71E087E394E00E94592C45
:1050900040E250E0BE016F5F7F4F87E394E00E94E3
:1050A0005B338097F1F587E394E00E946331182F1A
:1050B00060EE71E087E394E00E94592C40E2BE016B
:1050C0006F5F7F4FC6010E943B26811789F001E088
:1050D00021E042EE51E060E070E083E294E00E9463
:1050E000F72862EE71E087E394E00E94592CFFCF2D
:1050F00064EE71E087E394E00E94592C01E020E225
:10510000AE014F5F5F4FB70183E294E00E94F72842
:1051100080E2E80EF11CE1148AEFF80609F0B2CF44
:1051200010C001E021E046EE51E060E070E083E273
:1051300094E00E94F72866EE71E087E394E00E9415
:10514000592C68EE71E087E394E00E94592CA096F8
:105150000FB6F894DEBF0FBECDBFDF91CF911F9188
:105160000F91FF90EF90DF90CF900895DC01ED91CB
:10517000FC910190F081E02D0994CF93DF93C82F2B
:10518000D62F61E00E94E6296D2F8C2FDF91CF9101
:105190000C941F2ACF93C62F60E082E10E94BD28A5
:1051A00060E083E10E94BD2860E084E10E94BD28A8
:1051B00060E085E10E94BD2860E084E00E94BD2897
:1051C0006C2F85E00E94BD286C2F8FE00E94BD28C7
:1051D0006AE070E080E090E00E948E2B40E85AE1A7
:1051E00066E070E087E692E0CF910C94C620AF9223
:1051F000BF92CF92DF92EF92FF920F931F93CF93C4
:10520000DF93EB017A01B22EBB2009F45AC01B2DAB
:1052100080E28B1508F410E28C2F810F8F779C2F82
:105220009F77891708F4181B60E570E087E692E025
:105230000E94F3206D2F70E087E692E00E94B6286E
:10524000BE01772787E692E00E94B6280023A9F0E6
:10525000AE2C67018C2D8A19811740F4F6016191FB
:105260006F0187E692E00E947D20F4CF87E692E00E
:105270000E940821E10EF11C1AC087E692E00E940C
:105280000821412F60E587E692E00E94E620670151
:10529000760187E692E00E942520892B41F087E67F
:1052A00092E00E942D20F60181936F01F1CF64E01E
:1052B00070E080E090E00E948E2BC10FD11DB11AEA
:1052C000A3CFCE01DF91CF911F910F91FF90EF906F
:1052D000DF90CF90BF90AF900895CF93C62F6DE72A
:1052E0007EE087E394E00E94342CC230C9F058F489
:1052F000C13041F569E870E189E894E00E9490329C
:1053000067E77EE021C0C330A1F0C430D9F469E87A
:105310007EE089E894E00E94903263E67EE014C06B
:1053200069E870E189E894E00E94903260E77EE0ED
:105330000BC069E87FE089E894E00E9490326AE659
:105340007EE002C06CE57EE087E394E0CF910C94B0
:10535000762C90E0FC013197EF30F105B0F5E5597E
:10536000FF4F0C94D433809180008F7703C08091DD
:1053700080008F7D80938000089580918000877FDA
:10538000F9CF84B58F7702C084B58F7D84BD089531
:10539000809190008F7707C0809190008F7D03C02F
:1053A00080919000877F8093900008958091C00045
:1053B0008F7703C08091C0008F7D8093C0000895D7
:1053C0008091C200877F8093C2000895CF93DF93BE
:1053D00090E0FC01E955FE4E2491FC01EB53FE4E9A
:1053E0008491882349F190E0880F991FFC01E150D6
:1053F000FE4EA591B4918F509E4EFC01C591D49163
:105400009FB7611108C0F8948C91209582238C93EA
:10541000888182230AC0623051F4F8948C91322F33
:10542000309583238C938881822B888304C0F894E1
:105430008C91822B8C939FBFDF91CF9108950F9316
:105440001F93CF93DF931F92CDB7DEB7282F30E0A5
:10545000F901E757FE4E8491F901E955FE4E14918A
:10546000F901EB53FE4E04910023C9F0882321F08B
:1054700069830E94A9296981E02FF0E0EE0FFF1FE8
:10548000EF50FE4EA591B4919FB7F8948C916111A5
:1054900003C01095812301C0812B8C939FBF0F9077
:1054A000DF91CF911F910F910895CF93DF93282F14
:1054B00030E0F901E757FE4E8491F901E955FE4EBF
:1054C000D491F901EB53FE4EC491CC2391F081119C
:1054D0000E94A929EC2FF0E0EE0FFF1FED51FE4EC8
:1054E000A591B4912C912D2381E090E021F480E0EE
:1054F00002C080E090E0DF91CF9108951F93CF9399
:10550000DF93182FEB0161E00E94E629209711F448
:1055100060E004C0CF3FD10539F461E0812FDF9115
:10552000CF911F910C941F2AE12FF0E0E757FE4E18
:10553000449150E0FA013197EF30F10508F06CC06A
:10554000E658FF4F0C94D43384B5806884BDC7BD42
:1055500068C084B5806284BDC8BD63C0809180008E
:10556000806880938000D0938900C093880059C0E0
:1055700080918000806280938000D0938B00C093E4
:105580008A004FC080918000886080938000D09313
:105590008D00C0938C0045C08091900080688093FE
:1055A0009000D0939900C09398003BC080919000E8
:1055B000806280939000D0939B00C0939A0031C08A
:1055C00080919000886080939000D0939D00C0935C
:1055D0009C0027C08091C00080688093C0008091AB
:1055E000C0008F7B8093C000C093CF001AC0809111
:1055F000C00080628093C000C093D00012C0809130
:10560000C20088608093C2008091C2008B7F80932B
:10561000C200C093D20005C0C038D1050CF07DCFC8
:1056200077CFDF91CF911F9108951F920F920FB600
:105630000F9211242F933F938F939F93AF93BF9318
:105640008091260490912704A0912804B091290408
:105650003091250423E0230F2D3720F40196A11D5E
:10566000B11D05C026E8230F0296A11DB11D209390
:1056700025048093260490932704A0932804B093D4
:10568000290480912A0490912B04A0912C04B091BC
:105690002D040196A11DB11D80932A0490932B0423
:1056A000A0932C04B0932D04BF91AF919F918F9143
:1056B0003F912F910F900FBE0F901F9018952FB70D
:1056C000F8946091260470912704809128049091A9
:1056D00029042FBF08953FB7F89480912A04909130
:1056E0002B04A0912C04B0912D0426B5A89B05C0D5
:1056F0002F3F19F00196A11DB11D3FBF6627782FDE
:10570000892F9A2F620F711D811D911D42E0660F36
:10571000771F881F991F4A95D1F70895CF92DF927E
:10572000EF92FF92CF93DF936B017C010E946B2B72
:10573000EB01C114D104E104F10489F00E947E332D
:105740000E946B2B6C1B7D0B683E734090F381E0D5
:10575000C81AD108E108F108C851DC4FEACFDF913F
:10576000CF91FF90EF90DF90CF900895789484B51B
:10577000826084BD84B5816084BD85B5826085BD4D
:1057800085B5816085BDEEE6F0E080818160808333
:10579000E1E8F0E010828081826080838081816016
:1057A0008083E0E8F0E0808181608083E1E9F0E0DF
:1057B000808182608083808181608083E0E9F0E085
:1057C000808181608083E1ECF0E08081846080836F
:1057D000808182608083808181608083E3ECF0E05F
:1057E000808181608083E0ECF0E080818260808352
:1057F000E2ECF0E0808181608083EAE7F0E0808184
:1058000084608083808182608083808181608083E6
:105810008081806880830895CF92DF92EF92FF921B
:105820000F931F93CF93DF936C017A01EB01E60E88
:10583000F71E00E010E0CE15DF0561F06991D6019A
:10584000ED91FC910190F081E02DC6010995080FC2
:10585000191FF1CFC801DF91CF911F910F91FF90D8
:10586000EF90DF90CF900895EF92FF920F931F93E8
:10587000CF93DF938C01FB01C0E0D0E064917F0106
:105880008FEFE81AF80A662361F0D801ED91FC91D8
:105890000190F081E02DC8010995C80FD91FF701CB
:1058A000EDCFCE01DF91CF911F910F91FF90EF903F
:1058B00008950C949A09DC01ED91FC910190F0811E
:1058C000E02D09940F931F93CF93DF93EC016DE0CC
:1058D0000E945B2C8C016AE0CE010E945B2C800F41
:1058E000911FDF91CF911F910F9108950F931F93F7
:1058F000CF93DF93EC010E94342C8C01CE010E94E7
:10590000622C800F911FDF91CF911F910F9108950D
:105910000F931F93CF93DF93EC010E949A098C01A0
:10592000CE010E94622C800F911FDF91CF911F91B9
:105930000F9108958F929F92AF92BF92CF92DF9274
:10594000EF92FF920F931F93CF93DF93CDB7DEB704
:10595000A1970FB6F894DEBF0FBECDBF7C01C42E59
:10596000E52FCB01D22E19A221E02D1510F02AE04F
:10597000D22E8E010F5D1F4F8D2C912CA12CB12C9E
:105980006C2D7E2FA50194010E9493338C2DD29E05
:1059900080191124015011098A3014F4805D01C06E
:1059A000895CF8018083211531054105510521F0FD
:1059B000C22EE32FCA01E4CFB801C7010E949A09A1
:1059C000A1960FB6F894DEBF0FBECDBFDF91CF9189
:1059D0001F910F91FF90EF90DF90CF90BF90AF900D
:1059E0009F908F900895CF92DF92EF92FF920F9346
:1059F0001F93CF93DF93EC016A017B0121153105E1
:105A000079F4E881F9810190F081E02D642FDF9134
:105A1000CF911F910F91FF90EF90DF90CF9009945D
:105A20002A303105E9F477FF1AC06DE20E945B2C41
:105A30008C0144275527BA014C195D096E097F096D
:105A40002AE0CE010E949A2C800F911FDF91CF9106
:105A50001F910F91FF90EF90DF90CF9008952AE073
:105A6000B701A601CE01DF91CF911F910F91FF9059
:105A7000EF90DF90CF900C949A2C9A01AB0166279F
:105A800057FD6095762F0C94F32C2115310541F4C8
:105A9000DC01ED91FC910190F081E02D642F0994DF
:105AA0000C949A2C9A01462F50E060E070E00C9420
:105AB000452D9A01AB0160E070E00C94452D0F93E9
:105AC0001F93CF93DF93EC010E94452D8C01CE01F3
:105AD0000E94622C800F911FDF91CF911F910F9137
