:200000000C94D1080C94F9080C94F9080C94F9080C94F9080C94F9080C94F9080C94F90800
:200020000C94F9080C94F9080C947A310C9401320C94C6180C94F9080C94F9080C94F908FF
:200040000C94F9080C94F9080C94F9080C94F9080C94F9080C94F9080C94F9080C94CD2AA2
:200060000C94F9080C94F9080C94F9080C94F9080C94F9080C94F9080C94F9080C94F90878
:200080000C94F9080C94F9080C94F9080C94F9080C94F4200C94F9080C94F9080C94F90845
:2000A0000C94F9080C94F9080C94F9080D0A5B6E6F74207365745D005B4E4F5D005B4F4B87
:2000C0005D005B5244595D005B4E4F5D005B4F4B5D005B5244595D000D0A5B61626F727444
:2000E0005D0D0A3E000D0A3E005B756E6B6E6F776E5D000D0A5B61626F72745D000D0A57DC
:20010000726F6E672070617373776F72640D0A5B6C6F636B5D000D0A43757272656E742004
:200120007073773A005741524E494E473A2044455354524F595320414C4C204441544121EA
:200140000D0A41726520796F752073757265205B792F6E5D203F005B756E6B6E6F776E5DFF
:200160000D0A3E000D0A5B6E6F74207365745D0D0A3E000D0A5B7265706561745D005B613D
:2001800075746F5D000D5B454E542F752F702F735D3A0048656C700D0A2D2D2D2D0D0A2054
:2001A00053706163652020717569636B68656C700D0A20454E547520205365617263682004
:2001C000616E642074726967207573720D0A20454E5470202053656172636820616E642005
:2001E00074726967207073770D0A20454E5473202053656172636820616E642073686F7774
:200200000D0A20454E54454E54202053656172636820616E64207472696720626F74680D40
:200220000A20786120204E6577206163636F756E740D0A20786D20204E6577206D616372FB
:200240006F0D0A2078662020466F726D61740D0A20787020204368616E6765207073770D45
:200260000A207864202044656C6574650D0A20786F20204F766572726964650D0A20787523
:20028000202043686F6F73652023206D6163726F0D0A20786220205365742062616E6E65A7
:2002A000720D0A20786B2020536574206B6579626F617264206C61796F75740D0A202D2D86
:2002C0002D2D2D2D2D2D2D2D2D2D0D0A2023203D20427574746F6E206F6E20546865204665
:2002E000696E616C204B65792E0D0A2025203D204E756D62657220203A203D205465787405
:2003000020496E7075740D0A20454E54203D20454E5445520D0A202D2D2D2D2D2D2D2D2DC8
:200320002D2D2D0D0A3E005B6C6F636B5D005468652046696E616C204B65790D0A2D2D2D6E
:200340002D2D2D2D2D2D2D2D2D2D0D0A207520205573720D0A207020205073770D0A202538
:2003600020205573722B5073770D0A2073202053686F770D0A2072202052657065617420A9
:200380006C6173740D0A206A20206C697374203C0D0A206B20206C697374200D0A206C202F
:2003A000206C697374203E0D0A207120204C6F636B0D0A2068202048656C700D0A20454E60
:2003C00054455220205365617263680D0A3E00537061636520666F7220717569636B6865EA
:2003E0006C700D0A3E005468652046696E616C204B65790D0A23000D0A5B61626F72745D37
:20040000000D0A446F206E6F7420646973636F6E6E6563742E000D0A5265706561743A0077
:200420000D0A4E6577207073773A000D0A43757272656E74207073773A005741524E494E4A
:20044000473A20546869732072652D656E63727970747320646174612C2069742074616B84
:2004600065732061726F756E642033207365636F6E647320706572206163636F756E742EF7
:200480000D0A496620706F776572206973206C6F7374207768696C652072652D656E637266
:2004A000797074696E672C20646174612077696C6C206265206C6F73742E0D0A446F6E278D
:2004C0007420666F7267657420796F7572206E6577207073772E0D0A41726520796F752034
:2004E00073757265205B792F6E5D203F000D0A5B6B6579776F726420746F6F206C6F6E6737
:200500005D0D0A3E005B6B6579776F726420616D626967756F75735D0D0A3E005D0D0A3E79
:20052000005B466F756E6420005B6E6F7420666F756E645D0D0A3E00202D2000466F756EA5
:20054000643A20000D0A5B7365617263685D005B656D707479206B6579776F72645D0D0A75
:200560003E000D5365617263683A202020202020004163636F756E7473205B000D0A5B6152
:20058000626F72745D000D0A5B646F6E655D000D0A42616E6E65722028302D3331293A00F9
:2005A0005B61626F72745D005B656D7074795D005B7365745D004E6F742061206D6163720B
:2005C0006F2C2062757420796F752772652074686520626F73732E005B61626F72745D0064
:2005E0005B656D7074795D00205B792F6E5D203F0044656C20004F76657272696465200032
:200600000D0A5B61626F72745D005B646F6E655D000D0A5B7361766520656E747279200002
:200620005D000D0A5B467265653A000D0A54787420746F6F206C6F6E6721000D0A456D703C
:200640007479206C696E652077697468202E20746F20736176653A000D0A4D6163726F2086
:200660005469746C652028302D3331293A000D0A5B66756C6C5D000D0A5B61626F72745DA3
:20068000005B646F6E655D000D0A5B7361766520656E74727920000D0A3E000D0A536570D5
:2006A000657261746F723F0D0A2031203D205B5441425D0D0A2032203D205B454E545D0D68
:2006C0000A2033203D2043686F6F73650D0A25000D0A5370656369616C732C2028312D3254
:2006E00030293A000D0A5370656369616C733F0D0A2031203D20416C6C0D0A2032203D20F9
:2007000043686F6F73650D0A2033203D204E6F6E650D0A2500293A000D0A4C656E2C2028B8
:20072000312D00293A000D0A5073772C2028312D000D0A50737720747970653F200D0A200C
:2007400031203D206D616E75616C0D0A2032203D206175746F0D0A25000D0A557365723AA2
:20076000004163636F756E74205469746C652C2028302D3331293A000D0A5B66756C6C5D70
:20078000005B656D7074795D0D0A3E005B61626F72745D0D0A3E00205B646F6E655D0D0A63
:2007A0003E000D0A5B4552524F525D2057726F6E672077696E646F772C207472792061672A
:2007C00061696E2E000D0A000D0A202050617373776F72643A20000D0A2020557365726E34
:2007E000616D653A20000D0A4163636F756E743A2000205B455D00205B505D00205B535DBE
:2008000000205B555D00205B4D5D00203F0D0A005B4552524F525D005B53484F575D2000B5
:200820005B505D20005B555D20005B555D5B535D5B505D20000D0A005B61626F72745D0D2F
:200840000A3E000D5B646F6E655D202020000D0A5B67656E65726174655D000D0A5B736B1B
:20086000697020746573745D000D0A4C61796F757420636F7272656374206966206964657A
:200880006E746963616C20746F2061626F7665206C696E652E0D0A436F7272656374205B53
:2008A000792F6E5D203F00537570706F72746564207370656369616C733A000D0A546F20F8
:2008C000766572696679207468652073656C6563746564206C61796F757420776F726B73A5
:2008E0002C20666F637573206120626C616E6B20746578742D6669656C640D0A7468656E07
:2009000020707265737320746865206B6579206F72206C6F6E672D707265737320746F2072
:20092000736B69702074686520746573742E0D0A23000D0A5B44656E6965645D00556E6B11
:200940006E6F776E5D00444B204D41435D0055532050435D00444B2050435D000D0A5B478B
:2009600072616E7465645D0D0A5B4B6579626F6172643A20007D0D0A506173733A004E6587
:20098000656420666F726D6174206265666F72652075736500202320000D000D0A4E616D42
:2009A000652C2028302D3331293A000D0A5B4552524F525D000D0A5265706561743A0050DF
:2009C00073773A00497420697320696D706F7274616E74207468617420796F752072656D8A
:2009E000656D62657220746869732070617373776F72642E0D0A5468652046696E616C20F1
:200A00004B65792063616E206E6F7420626520756E6C6F636B656420776974686F7574203A
:200A200069742E0043686F6F73652070617373776F72642028312D333229000D0A5B496E5A
:200A400076616C69642063686F6963655D000D0A5B73617665645D0053656C656374206BD1
:200A60006579626F617264206C61796F75743A0D0A2031203D20444B2050430D0A203220E8
:200A80003D2055532050430D0A2033203D20444B204D41430D0A25005D000D0A5B556E73F6
:200AA0007570706F727465643A0052096AD53036A538BF40A39E81F3D7FB7CE339829B2F42
:200AC000FF87348E4344C4DEE9CB547B9432A6C2233DEE4C950B42FAC34E082EA16628D92F
:200AE00024B2765BA2496D8BD12572F8F66486689816D4A45CCC5D65B6926C704850FDED0E
:200B0000B9DA5E154657A78D9D8490D8AB008CBCD30AF7E45805B8B34506D02C1E8FCA3F05
:200B20000F02C1AFBD0301138A6B3A9111414F67DCEA97F2CFCEF0B4E67396AC7422E7AD43
:200B40003585E2F937E81C75DF6E47F11A711D29C5896FB7620EAA18BE1BFC563E4BC6D208
:200B600079209ADBC0FE78CD5AF41FDDA8338807C731B11210592780EC5F60517FA919B5F3
:200B80004A0D2DE57A9F93C99CEFA0E03B4DAE2AF5B0C8EBBB3C83539961172B047EBA77F8
:200BA000D626E169146355210C7D637C777BF26B6FC53001672BFED7AB76CA82C97DFA5979
:200BC00047F0ADD4A2AF9CA472C0B7FD9326363FF7CC34A5E5F171D8311504C723C3189658
:200BE000059A071280E2EB27B27509832C1A1B6E5AA0523BD6B329E32F8453D100ED20FC4B
:200C0000B15B6ACBBE394A4C58CFD0EFAAFB434D338545F9027F503C9FA851A3408F929DAF
:200C200038F5BCB6DA2110FFF3D2CD0C13EC5F974417C4A77E3D645D197360814FDC222A52
:200C4000908846EEB814DE5E0BDBE0323A0A4906245CC2D3AC629195E479E7C8376D8DD55A
:200C60004EA96C56F4EA657AAE08BA78252E1CA6B4C6E8DD741F4BBD8B8A703EB5664803FE
:200C8000F60E613557B986C11D9EE1F8981169D98E949B1E87E9CE5528DF8CA1890DBFE607
:200CA000426841992D0FB054BB165B454E445D005B424547494E5D005B46696E616C4B65FE
:200CC00079325D000D5B446F6E655D202020202020000D456E6372797074696E672E00465D
:200CE0006F726D617474696E673A000D5B646F6E655D202000456E6372797074696E673ADD
:200D0000004368616E67696E672070617373776F72642E0000000000240027002A002D0051
:200D2000300000000000250028002B002E003100000000002300260029002C002F000404D7
:200D400004040403040502020202040302020202060606060606040402020204040802011F
:200D6000104080401020408040800802040180402010020110801020404000000002000867
:200D80000E0000030401000B00000000000000000000000000000000070605040100080A09
:200DA0000B0C0D09080B000202020100090400000102020000052400100105240101010470
:200DC00024020605240600010705810310004009040100020A000000070502024000000766
:200DE00005830240000005010906A1018502050719E029E71500250175019508810295016F
:200E00007508810395067508150025650507190029658100C00904020001030000000921E9
:200E200001010001222F0007058403400001000000000000000000000000000000002A0060
:200E40002B002800000000000000000000000000000000000000000000000000000000003F
:200E600000000000000000000000000000002C001E02340220022102220224023400260205
:200E8000270225022E0236002D003700380027001E001F00200021002200230024002500CD
:200EA00026003302330036022E00370238021F020402050206020702080209020A020B025E
:200EC0000C020D020E020F0210021102120213021402150216021702180219021A021B02BA
:200EE0001C021D022F003100300023022D0235000400050006000700080009000A000B0060
:200F00000C000D000E000F0010001100120013001400150016001700180019001A001B0099
:200F20001C001D002F023102300235020000000000000000000000000000000000002A0081
:200F40002B002800000000000000000000000000000000000000000000000000000000003E
:200F600000000000000000000000000000002C001E021F02200221402202230232002502DF
:200F8000260232022D00360038003700240227001E001F00200021002200230024002500CA
:200FA0002600370236026400270264022D021F400402050206020702080209020A020B02CD
:200FC0000C020D020E020F0210021102120213021402150216021702180219021A021B02B9
:200FE0001C021D022540644026400000380235000400050006000700080009000A000B009A
:201000000C000D000E000F0010001100120013001400150016001700180019001A001B0098
:201020001C001D0024402E40274000000000000000000000000000000000000000002A0014
:201040002B002800000000000000000000000000000000000000000000000000000000003D
:2010600000000000000000000000000000002C001E021F02200264002202230232002502DB
:20108000260232022D00360038003700240227001E001F00200021002200230024002500C9
:2010A0002600370236023500270235022D0232400402050206020702080209020A020B0217
:2010C0000C020D020E020F0210021102120213021402150216021702180219021A021B02B8
:2010E0001C021D022540244226400000380235000400050006000700080009000A000B00D7
:201100000C000D000E000F0010001100120013001400150016001700180019001A001B0097
:201120001C001D0025420C40264200000000040309042203410072006400750069006E00BF
:201140006F0020004C0065006F006E006100720064006F00180341007200640075006900BC
:201160006E006F0020004C004C004300120100020000004041233680000101020001120110
:201180000002020000404123368000010102000100C18081C100901FA3229028B82DD72E53
:2011A000B63011241FBECFEFDAE0DEBFCDBF12E0A0E0B1E0E8E1F8E602C005900D92A43022
:2011C000B107D9F714E0A4E0B2E001C01D92A638B107E1F711E1C2EAD1E104C02297FE01D3
:2011E0000E94CF33C639D107C9F70E945A2D0C940A340C940000A0E0B0E0E1E0F9E00C94C3
:20120000DB33EC01A880B980CA80DB80A114B104C104D10441F484E2A82E89EDB82E8BE58C
:20122000C82E87E0D82EC601B5012DE133EF41E050E00E949E3327EA31E440E050E00E94C2
:201240004A337B018C01C601B5012DE133EF41E050E00E949E33CA01B9012CEE34EF4FEF97
:201260005FEF0E944A336E0D7F1D801F911F97FF04C06150704080409048688379838A8354
:201280009B839B01AC015F77B901CA01CDB7DEB7EAE00C94F7330E94FB08089580E691E0C6
:2012A0000E94FB080895609360017093610180936201909363010895FC0188279927E894B1
:2012C00021912032E9F3293010F02E30C8F32B3241F02D3239F4689404C00E949709820F0F
:2012E000911D219120532A30C0F31EF4909581959F4F0895FB01DC0104C08D910190801951
:2013000021F441505040C8F7881B990B0895FB01DC0102C001900D9241505040D8F708959C
:20132000DC0101C06D9341505040E0F708957AE0979F902D879F802D910D11240895FC01ED
:201340009081892F80538A3038F08153863010F080E002C0892F8755282F2295207F918110
:20136000892F80538A3010F4282B06C0892F8156863010F49755292B822F089580E694E05A
:201380006CEC71E00E94442D08950AC080E694E00E94952D64E170E080E090E00E94232B97
:2013A00080E694E00E946E2D892B81F70895CF93DF93EC016115710519F420E030E00FC0B4
:2013C000DB010D900020E9F71197A61BB70BE881F9810280F381E02DAD0109959C01C901D0
:2013E000DF91CF9108958F929F92AF92BF92CF92DF92EF92FF920F931F93DF93CF93CDB70C
:20140000DEB7A0970FB6F894DEBF0FBECDBF182F0E94BE091F3F31F480910602882369F465
:2014200085E019C0113039F480910602853061F41092060212C017FF05C0809106028823C2
:2014400039F40BC0112349F080910602853028F480910602810F80930602809106029CE2E2
:20146000899F7001112480E694E061E775E00E94FC2B80E694E0609106024AE050E00E948F
:20148000DF2C80E694E060E071E00E94442D8E2D845D00E010E0882E99245E010894A11C2C
:2014A000B11C8BE2C82E4DC080E293E06E2DA5010E941627882309F441C0002369F0DC2CCD
:2014C000D11A10E006C080E694E060E20E94DD2D1F5F1D15C0F305C080E694E060E20E94BD
:2014E000DD2D80E1E816F10428F480E694E060E30E94DD2D80E694E0B70140E150E00E9424
:20150000CE2C80E694E066E071E00E94442DF50101900020E9F71E2F1A191B5F80E694E0F2
:20152000B5010E94442D002311F401E007C080E694E06AE071E00E94442D00E00894E11C11
:20154000F11CE814F90408F4AFCF002321F080E694E00E94272C80E694E06EE30E94DD2D31
:20156000A0960FB6F894DEBF0FBECDBFCF91DF911F910F91FF90EF90DF90CF90BF90AF9064
:201580009F908F900895EF92FF920F931F93CF93DF93EC01F62EE42E262F30E02F5F3F4F82
:2015A00060E070E0A9010E94900910E080E694E00E946E2D892B09F458C080E694E00E946A
:2015C000952D082F883041F41123C1F11150FE01E10FF11D108232C08D3029F4C10FD11DC5
:2015E000188281E04AC01F1509F446C020E030E0F901E059FE4F80818017D9F0822F8F5F1F
:201600002F5F3F4F2C35310599F78C3591F480E694E06AE97AE00E94FC2B80E694E0602F88
:201620000E941F2C80E694E068E97AE00E94472C23C0FE01E10FF11D00831F5FEE20A9F09B
:2016400080E694E06DE00E94DD2D80E694E06BE10E94DD2D80E694E06DE071E00E94D709EB
:2016600080E694E0BE010E94D70980E694E00E94CF2D882309F09ACF80E0DF91CF911F91EA
:201680000F91FF90EF90089528C080E694E00E946E2D892B11F180E694E00E947C2D089786
:2016A00071F480E694E068E00E94DD2D80E694E060E20E94DD2D80E694E068E007C080E6E0
:2016C00094E00E947C2D682F80E694E00E94DD2D80E694E00E94952D089580E694E00E94D7
:2016E000CF2D882391F68FEF0895EF92FF921F93DF93CF9300D0CDB7DEB710E07E01089415
:20170000E11CF11C01C010E00E94440B982F883019F41123C1F706C080538A3030F081535E
:20172000863018F02FEF3FEF10C0F701E10FF11D90831F5F123041F780E694E00E94272CFF
:20174000C7010E949F09282F30E0C9010F900F90CF91DF911F91FF90EF900895DF92EF92EB
:20176000FF920F931F93DF93CF93CDB7DEB7C05ED0400FB6F894DEBF0FBECDBF0E94750B00
:201780008C018FEF0F3F180771F1D02E80E293E0602F7E010894E11CF11CA7010E94162761
:2017A0008823D9F080E293E0602FA7010E94C92689A1882319F48AA1882331F080E694E065
:2017C00066EB75E00E94472CD09264011092650180E694E060EB75E00AC080E694E068EA0F
:2017E00075E00E94472C80E694E060EA75E00E94472CC052DF4F0FB6F894DEBF0FBECDBF6A
:20180000CF91DF911F910F91FF90EF90DF9008957F928F929F92AF92BF92CF92DF92EF9246
:20182000FF920F931F93DF93CF93CDB7DEB7C050D1400FB6F894DEBF0FBECDBF982E892EF1
:20184000762E8901442331F42DE3C22ED12CE12CF12C05C09BE5C92ED12CE12CF12C20E73D
:2018600031E05E010894A11CB11CC501B901A6010E94870901151105E9F0D8010D900020DE
:20188000E9F71197A01BB10B95012C0D3D1DC901B801AD010E948709D8010D900020E9F747
:2018A000CD010197801B910BA0E0B0E0C80ED91EEA1EFB1E80E694E06EE478E00E94472CF4
:2018C0008CE492E00E94C3188830D1F7892D982D9C01590110E04E010894811C911C2CC0A6
:2018E00080E694E060E171E00E94442D80E694E0612F4AE050E00E94DF2C80E694E06FE2CD
:201900000E94DD2D80E694E0672D4AE050E00E94DF2C80E694E06DE50E94DD2D8CE492E0EC
:20192000B701A6010E941F18F401E60FF11D8081F50181935F011F5F171590F280E694E006
:2019400063E478E00E94472CC050DF4F0FB6F894DEBF0FBECDBFCF91DF911F910F91FF909F
:20196000EF90DF90CF90BF90AF909F908F907F900895CF93DF93CFEFD0E08AE0BE010E9485
:20198000282A61E070E080E090E00E94232B2197C034D10591F7C0E4D0E08AE0BE010E947B
:2019A000282A62E070E080E090E00E94232B2196CF3FD10591F78AE061E00E94C529DF91B5
:2019C000CF910895EF92FF920F931F93CF93DF93EC011816190624F480E694E00E94272CAF
:2019E0000CEB12E0EE24E394FF2448C0CE0168EE73E00E946933892BD1F41C161D06BCF416
:201A000080E694E069E979E00E94FC2BCE0168EE73E00E94693380E694E04AE050E00E94EC
:201A2000312D80E694E065E979E00E94FC2B61E070E080E090E00E94232B8AE06E2D0E9406
:201A4000C529F39484E6F81631F480E0EE2009F481E0E82EFF2489E00E94F829892B21F47A
:201A60000150104059F40DC082E00C3B180711F011E008C01C161D060CF42197209709F06C
:201A8000B5CF10E08AE06E2D0E94C5290E94C50980E694E00E94CF2D882309F410E08AE053
:201AA00061E00E94C52980E694E063E171E00E94472D812FDF91CF911F910F91FF90EF90F2
:201AC0000895CF92DF92EF92FF920F931F93DF93CF93CDB7DEB7C356D0400FB6F894DEBF2D
:201AE0000FBECDBF0E94BE0980E694E06AE374E00E94FC2B0E94440B893709F054C088E8B2
:201B000093E10E94E20C882309F44DC080E694E06BE274E00E94472C33E4C32ED12CCC0E9D
:201B2000DD1EC60160E240E00E94C30A80E293E0B6010E940C288823B1F180E694E060E247
:201B400074E00E94472C7E010894E11CF11CC70160E240E00E94C30A882329F180E694E0BF
:201B600066E174E00E94FC2B8E010E5D1F4FC80160E240E00E94C30A8823A9F0C701B8013A
:201B800040E250E00E947A09009769F480E694E061E074E00E94472C80E293E0B701A60122
:201BA0000E94652706C080E694E067EF73E00E94472CCD59DF4F0FB6F894DEBF0FBECDBFFE
:201BC000CF91DF911F910F91FF90EF90DF90CF9008950F931F93DF93CF93CDB7DEB7A097F4
:201BE0000FB6F894DEBF0FBECDBF88E893E10E94E20C8823E1F080E694E06FE875E00E9486
:201C0000472C8E010F5F1F4FC8016FE141E00E94C30A882361F080E293E0B8010E941023DE
:201C200080E694E066E875E00E94472C06C080E694E06CE775E00E94FC2BA0960FB6F8947A
:201C4000DEBF0FBECDBFCF91DF911F910F9108953F924F925F926F927F928F929F92AF9289
:201C6000BF92CF92DF92EF92FF920F931F93DF93CF93CDB7DEB7CE59D1400FB6F894DEBFC8
:201C80000FBECDBF5C01FE0131968EEBDF011D928A95E9F7BFEFAB16BFEFBB06A9F480E2E4
:201CA00093E00E94D2225C01E1E080309E0729F480E694E06EE676E0AAC088E893E10E9417
:201CC000E20C882309F49FC080E694E068E576E00E94472CCE0181549F4F6FE141E00E94D8
:201CE000C30A882309F48FC080E694E06BE376E00E94472CDD244E010894811C911C7DEBEF
:201D0000372E6AE0C62E5DEB452E512C4BEB642E712CED2CFF2484010E0D1F1D632D6D1955
:201D2000C80141E00E94C30A882309F46CC0F80101900020E9F73297E017F107A1F5D801C5
:201D40008C918E3281F5EC0EFD1EF701108280E694E061E176E00E94FC2B80E694E0B501C6
:201D600040E150E00E94312D80E694E06DE171E00E94472DFE01E154FF4F11A210A2B29654
:201D8000D4018EEB0D9001928150E1F780E293E06A2DAE0141545F4F0E94972580E694E086
:201DA0006AE076E034C0F40101900020E9F73197E819D401AE0FB11DCC92DE2ED3940D2DD5
:201DC00010E0C201801B910B02973CF480E694E06BE276E00E94472C16C080E694E062E2CA
:201DE00076E00E94FC2BB301601B710B80E694E04AE050E00E94312D80E694E060E276E073
:201E00000E94472C86CF80E694E060E076E00E94472CC256DE4F0FB6F894DEBF0FBECDBF47
:201E2000CF91DF911F910F91FF90EF90DF90CF90BF90AF909F908F907F906F905F904F90EE
:201E40003F900895CF92DF92FF920F931F93DF93CF93CDB7DEB7C95FD0400FB6F894DEBF4C
:201E60000FBECDBF6C012FEF8F3F9207A9F480E293E00E94D2226C0131E08030930729F42A
:201E800080E694E068E777E00FC188E893E10E94E20C882309F404C180E694E061E677E099
:201EA0000E94472CCE014A966FE141E00E94C30A882309F4F5C080E694E069E577E00E9400
:201EC000472C8E01045C1F4FC8016DEB41E00E94C30A882309F4E4C0F80101900020E9F7AB
:201EE000E01BEBAFFDEBFF2EFE1A80E694E061E377E00E94FC2B0E94440B813301F580E6E1
:201F000094E066E277E00E94FC2B80E694E06F2D4AE050E00E94DF2C80E694E063E277E0F2
:201F20000E94472C8BAD9801280F311DC9016F2D40E00E94C30A882309F076C0B1C0823341
:201F400009F0AEC080E694E068E177E00E94FC2B80E694E06F2D4AE050E00E94DF2C80E6F4
:201F600094E065E177E00E94472C8E010F5F1F4FC80163E041E00E94C30A882309F490C03C
:201F8000C8010E945C099C018F2D90E0821793070CF486C0121613060CF082C089818823FB
:201FA00009F47EC080E694E064EE76E00E94FC2B0E94440B182F10538153833008F070C051
:201FC0001230F1F480E694E060ED76E00E94472C8E010B5F1F4FC80164E141E00E94C30A43
:201FE000882309F45DC0CE0101960E945C09682F2BADCE01CC96820F911D40E0980112C045
:20200000CE0101960E945C09682F9E01245C3F4F8BAD280F311D40E0113009F441E0C90109
:2020200020E030E00E94080C80E694E06BE976E00E94FC2B0E94440B8053813011F489E0AA
:202040000EC0823011F48AE00AC0833049F580E694E067E976E00E94FC2B0E94440B8AAF63
:2020600080E694E068E876E00E94FC2B80E694E0B60140E150E00E94312D80E694E06DE10D
:2020800071E00E94472D80E293E06C2DAE01465E5F4F0E94972580E694E061E876E004C0CF
:2020A00080E694E067E776E00E94472CC750DF4F0FB6F894DEBF0FBECDBFCF91DF911F9181
:2020C0000F91FF90DF90CF900895EF92FF920F931F93DF93CF93CDB7DEB7C050D1400FB62D
:2020E000F894DEBF0FBECDBFE82E0E94750B8C018FEF0F3F180709F45FC0F02E80E293E09F
:20210000602FAE014F5F5F4F0E941627882309F44EC0EE2029F080E694E066EF75E004C021
:2021200080E694E061EF75E00E94FC2B80E694E0BE016F5F7F4F0E94442D80E694E068EEDF
:2021400075E00E94472C0E94440B8937A9F588E893E10E94E20C882379F180E293E06F2DCC
:20216000AE014F5D5F4F0E94C92680E293E06F2D0E94F125EE20A1F0FE01EF5BFF4F808165
:20218000882351F4FE01EE5BFF4F8081882321F4C8010E94280E16C0C8010E94220F12C013
:2021A00080E694E06FE171E00E94442D0BC080E694E060EE75E004C080E694E068ED75E001
:2021C0000E94472CC050DF4F0FB6F894DEBF0FBECDBFCF91DF911F910F91FF90EF9008959A
:2021E0002F923F924F925F926F927F928F929F92AF92BF92CF92DF92EF92FF920F931F934D
:20220000DF93CF93CDB7DEB7C150D1400FB6F894DEBF0FBECDBF182F7B01242E8FEF6F3F27
:20222000780729F480E694E068E378E021C14E010894811C911C82E2482E512C4C0E5D1E42
:2022400003E4A02EB12CAC0EBD1E312E3A94B2E2CB2ED12CC40CD51CA2E46A2E712C6C0EAA
:202260007D1E0E2D80E293E06E2DA4010E941627882309F4F4C010930402E092050280E6B0
:2022800094E065E378E00E94472C113089F0113050F0123019F01330A9F40FC080E694E006
:2022A0006AE278E013C080E694E065E278E00EC080E694E060E278E009C080E694E068E100
:2022C00078E004C080E694E060E178E00E94FC2B80E694E0B4010E94442D80E694E06BE0DF
:2022E00078E00E94FC2B222039F480E395E70E94E20C882309F4B8C080E293E0602FA201B8
:202300000E94C926F5018081882371F4F3018081882351F48FE694E0B6010E94442D80E627
:2023200094E066E078E085C00E94C509123011F01123F9F48FE694E0B6010E94442D80E659
:2023400094E061E078E00E94FC2B123091F48FE694E0F30160810E94B92E66E970E080E09A
:2023600090E00E94232B80E694E06CEF77E00E94FC2BF1E0F31578F0F5018081B601680F42
:20238000711D8FE694E00E94442D80E694E067EF77E00E94FC2B123051F48FE694E06AE0A9
:2023A0000E94B92E80E694E062EF77E042C0133009F041C080E694E066EE77E00E94FC2B85
:2023C000F0E1EF16F1042CF480E694E060E30E94DD2D80E694E0B70140E150E00E94312D66
:2023E00080E694E066E071E00E94442D80E694E0B4010E94442D80E694E067ED77E00E9490
:20240000FC2B80E694E0B6010E94442D80E694E068EC77E00E94FC2BF5018081B601680F7E
:20242000711D80E694E00E94442D80E694E065EC77E00E94FC2B80E694E00E946E2D892B0B
:2024400049F00E94C50980E694E062EA77E00E94FC2B07CF80E694E067E977E009C080E607
:2024600094E061E877E004C080E694E06CE877E00E94FC2BCF5FDE4F0FB6F894DEBF0FBE20
:20248000CDBFCF91DF911F910F91FF90EF90DF90CF90BF90AF909F908F907F906F905F90DB
:2024A0004F903F902F9008952F923F924F925F926F927F928F929F92AF92BF92CF92DF92E6
:2024C000EF92FF920F931F93DF93CF93CDB7DEB7C256D0400FB6F894DEBF0FBECDBFA39601
:2024E0008FAFA39780E694E062E675E00E94472C8E010F5F1F4FC8016FE141E00E94C30AC4
:20250000882309F4CFC08981882311F0F8010CC080E694E06FE475E0C9C0892F81568A31B4
:2025200010F490529083319690819923B1F780E694E064E475E00E94472C2E010894411CB2
:20254000511CF20101900020E9F731978E2F8419A2968FAFA297CC24EE24FF2421E2A22EC1
:20256000B12CAC0EBD1E91E4892E912C8C0E9D1E282E33247E2C80E293E06E2DA5010E949C
:202580001627882309F458C0F50101900020E9F731972E2F2A19F401D50180E20D900192F2
:2025A0008150E1F7D40107C0892F81568A3110F490529C9311969C919923B1F7DD24022F0D
:2025C00010E00219130933C0880D991DB201A2964FADA29750E00E947A09009739F580E6F6
:2025E00094E06CE375E00E94FC2B80E1E816F1042CF480E694E060E30E94DD2DC39480E600
:2026000094E0B70140E150E00E94312D80E694E068E375E00E94FC2B80E694E0B5010E94C8
:20262000442D80E694E00E94272C07C0D3948D2D90E00817190744F6762C0894E11CF11C41
:2026400080E0E81681E0F80611F0672C93CFCC2061F081E0C81671F4A3968FADA397672DA3
:2026600070E040E00E94F01023C080E694E069E275E01CC080E694E061E275E00E94FC2BD4
:2026800080E694E06C2D4AE050E00E94DF2C80E694E06CE175E00E94FC2B80E694E065E05C
:2026A00075E004C080E694E06DEE74E00E94FC2BCE59DF4F0FB6F894DEBF0FBECDBFCF91B3
:2026C000DF911F910F91FF90EF90DF90CF90BF90AF909F908F907F906F905F904F903F90D7
:2026E0002F9008951F93CF93DF9380E694E06BEB78E00E94FC2B8FEF9FEF0E94E20C882360
:20270000B1F180E694E067EA78E00E94FC2B8FE694E06BE271E00E94442DCEEAD1E019911E
:2027200080E694E0612F0E941F2C6AE070E080E090E00E94232B8FE694E0612F0E943D2F61
:202740008FE694E0612F0E94AD2E81E0CC3CD80731F780E694E069E678E00E94FC2B0E9427
:20276000440B90E0893709F491E0892F06C080E694E06BE578E00E94FC2BDF91CF911F9123
:20278000089580EA92E00E9430208CE492E00E94A4178CE492E00E94C3188823D1F38CE451
:2027A00092E00E94B717DC01CB010E94A52F80E694E060E875E20E946D2D8AE061E00E9416
:2027C000382987E061E00E94382987E060E00E94C52989E060E00E94382989E061E00E94BE
:2027E000C52908951F9380E694E068E57AE00E94FC2B0E94440B182F813321F480E293E07C
:2028000060E00BC0823321F480E293E061E005C0833329F480E293E062E00E941C231153D9
:20282000133060F40E947213882371F080E694E06EE47AE00E94472C1F91089580E694E00C
:202840006BE37AE00E94472C80E694E00E94272CCACFEF92FF920F931F93DF93CF93CDB795
:20286000DEB7C254D0400FB6F894DEBF0FBECDBF80E694E064E27AE00E94472C80E694E0ED
:2028800064EC79E00E94472C7E010894E11CF11C8E010E5D1F4F80E694E06FEB79E00E94BE
:2028A000FC2BC70160E240E00E94C30A8823A9F080E694E065EB79E00E94FC2BC80160E2BD
:2028C00040E00E94C30A882341F0C701B80140E250E00E947A09009739F080E694E06BEAA6
:2028E00079E00E94472CD7CF8E010E5D1F4F80E694E06BE979E00E94472CC8016FE141E086
:202900000E94C30A882399F380E694E00E94272C0E94F21380E293E0BE016F5F7F4FA801C2
:202920000E944726CE5BDF4F0FB6F894DEBF0FBECDBFCF91DF911F910F91FF90EF9008951F
:20294000FF920F931F93DF93CF93CDB7DEB7C154D0400FB6F894DEBF0FBECDBFF82E81E2B0
:20296000FE01B196DF011D928A95E9F7FE01319680E2DF011D928A95E9F7FF2011F00E940B
:20298000BE0980E293E08E010F5F1F4FB8010E943723882349F480E694E06EE779E00E9469
:2029A000472C0E9429145AC0FF2081F080E694E06BE70E94DD2D80E694E0B8010E94442D9D
:2029C00080E694E065E779E00E94FC2B8E010F5D1F4FC80160E240E00E94C30A80E293E0D7
:2029E000B8010E940C28882389F1FF2069F180E694E06CE579E00E94FC2B80E293E00E94E6
:202A0000AB22882329F480E694E065E579E01AC080E293E00E94AB22813029F480E694E0DE
:202A20006EE479E00FC080E293E00E94AB22823029F480E694E066E479E004C080E694E0EE
:202A40006DE379E00E94472C81E009C0FF2031F080E694E062E379E00E94472C80E0CF5B37
:202A6000DF4F0FB6F894DEBF0FBECDBFCF91DF911F910F91FF900895CF92DF92FF920F9390
:202A80001F93DF93CF9300D000D00F92CDB7DEB7109204028FEF9FEF9093650180936401A1
:202AA0000E94B90C80E694E00E94CF2D8823D1F30E94BE090E94B90C80E694E066EE73E077
:202AC0000E94FC2B8FEF9FEF0E94E20C882309F42EC282E194E061E00E949F2881E00E9475
:202AE000A014882309F40FC280E694E06FEC73E00E94FC2BFF241D8218EC6E010894C11CAA
:202B0000D11CFBC10F2D10E080E694E00E94952D682FF601E00FF11F808380528F3520F468
:202B200080E694E00E94DD2D0C0D1D1DF8018081883089F480E694E06DE00E94DD2D80E654
:202B400094E06BE10E94DD2D80E694E06FE371E00E94D70910C0F394F1E0FF1609F094C080
:202B60009981903251F40E94BE0980E694E06EE273E00E94FC2BFF249BC1953751F480E68F
:202B800094E065E20E94DD2D0E94750BBC0180E091C0903751F480E694E065E20E94DD2D65
:202BA0000E94750BBC0181E085C0933751F480E694E065E20E94DD2D0E94750BBC0183E072
:202BC00079C09A3611F48FEF07C09C3611F481E003C09B3621F480E00E94F309CCCF913760
:202BE00089F40E94BE0980E293E00E948D2880E694E067E273E00E94FC2B64EF71E080E080
:202C000090E0C0C0983639F40E94BE0980E694E063E971E0AECF892F80538A3008F446C124
:202C20008153863008F442C174C19D3041F480E694E065E871E00E94FC2B83E16EC1983533
:202C400041F480E694E06EE771E00E94472CE2E12EC19237A1F480910402882359F080E629
:202C600094E063E771E00E94472C60910502809104021FC080E694E064E671E07ACF80E61E
:202C800094E067E571E075CFF2E0FF1609F010C18D81823099F49A81892F80538A3020F071
:202CA0009156963008F067CFC6010E949F09682F82E070E040E00E94F0105DCFED81E13171
:202CC00009F095C08A818B3609F483C08C3684F4823609F46EC0833624F4813609F07CC0C0
:202CE00017C0843609F454C0863609F075C01AC08F3609F455C0803724F48D3609F06CC0E0
:202D00000CC0803709F441C0853709F065C059C08FEF9FEF0E94220F65C08FEF9FEF0E948D
:202D2000280E60C00E94BE0980E694E065E271E00E94FC2B0E94440B893709F0F0C088E8CF
:202D400093E10E94E20C882309F4E9C080E293E00E948D2880E694E066E171E00E94FC2BB7
:202D600080E00E94A014882319F00E9429143AC080E694E06DEF70E00E94FC2B68EE73E018
:202D800080E090E00E94232BD2C00E94610D2AC080E694E063E471E00E94442D80E006C03C
:202DA00080E694E065E20E941F2C81E00E94651019C080E694E06AE30E941F2C0E94E90D08
:202DC00011C080E694E065E20E941F2C0E94AE0B09C00E94F21306C080E694E069EE70E002
:202DE0000E94472C80E694E065EE70E0C2CEFD81F331C1F48A81853711F480E00BC08037AC
:202E000011F481E007C08D3011F482E003C0833721F483E00E945412AECE80E694E068EDB9
:202E200070E0A7CE8D81823109F0A5CE8A818536F9F0893609F09FCE80E694E062ED70E053
:202E40000E94472C88E893E10E94E20C882359F080E694E06DEC70E00E94472C80E293E088
:202E60000E94FC2364C080E694E068EC70E01BC080E694E062EC70E00E94472C88E893E1A3
:202E80000E94E20C882359F080E694E06DEB70E00E94472C80E293E00E948C236CCE80E651
:202EA00094E068EB70E00E94472C65CEE2E0ED8314EF80E694E00E946E2D892B09F022CECA
:202EC00089E00E94F829892B79F5112369F56091640170916501FFEF6F3F7F0729F082E0B8
:202EE00041E00E94F01006C080E694E06CEA70E00E94472C14E101C0115080E694E00E9421
:202F0000CF2D8823B1F682E194E060E00E949F280EC0983709F089CE81E18D83C9CF80E686
:202F200094E063EF70E05CCF112331F7E6CF0F900F900F900F900F90CF91DF911F910F9104
:202F4000FF90DF90CF900895109227021092290210922A0210922B02F89414BEE0E6F0E04E
:202F600080818861808380E4808378940895CF93DF93EC0180912B028823E1F32FB7F89464
:202F8000E0912902F0E0EE0FFF1FEE0FFF1FE45DFD4F80819181A281B3818C839D83AE8338
:202FA000BF838091290290E00196877090708093290280912B02815080932B022FBF6C812D
:202FC0007D818E819F81DF91CF910895CF93DF93EC0180915502882339F4CE010E94B71717
:202FE000688379838A839B8390915502C90FD11D88819F5F937090935502DF91CF91089590
:20300000CF93DF93EC0180915402882339F4CE010E94B717688379838A839B832091540258
:20302000E22FF0E0EE0FFF1FEC0FFD1F808191812F5F217020935402DF91CF910895AF9294
:20304000BF92CF92DF92EF92FF920F931F93CF93DF93EC017A018B0142305105610571057B
:2030600028F41C821D821E821F827EC08FEF9FEFAFEFBFEF8C839D83AE83BF834F3F51059A
:203080006105710509F028F56FEF70E080E090E0A80197010E947C3359016A0110C0CE01CA
:2030A0000E94E61790E0A0E0B0E0BC01CD019501A6010E947C332C833D834E835F838C81A9
:2030C0009D81AE81BF818E159F05A007B10738F74BC0403080E0580781E0680780E07807A5
:2030E00020F56FEF7FEF80E090E0A80197010E947C3359016A010FC0CE010E940018A0E0F0
:20310000B0E0BC01CD019501A6010E947C332C833D834E835F838C819D81AE81BF818E15A7
:203120009F05A007B10740F71FC06FEF7FEF8FEF9FEFA80197010E947C3359016A010BC07C
:20314000CE010E94B7179501A6010E947C332C833D834E835F838C819D81AE81BF818E1543
:203160009F05A007B10760F76C817D818E819F81DF91CF911F910F91FF90EF90DF90CF90DF
:20318000BF90AF90089580912B0208951F920F920FB60F9211242F933F934F935F936F93D2
:2031A0008F939F93AF93BF93CF93DF93EF93FF938091270290918400E82FF0E0E95FFD4FE5
:2031C00090838F5F80932702803208F42CC19091290280912B02890F877080932A0260E07F
:2031E00070C080912A02C82FD0E0CC0FDD1FCC0FDD1FC45DDD4F88819981AA81BB81E62F21
:20320000F0E0E95FFD4F2081820F911DA11DB11D88839983AA83BB8320912A02C22FD0E0CE
:20322000CC0FDD1FCC0FDD1FC45DDD4F288139814A815B81E0912A02F0E0EE0FFF1FEE0F04
:20324000FF1FE45DFD4F80819181A281B381EAE0880F991FAA1FBB1FEA95D1F7820F931F13
:20326000A41FB51F88839983AA83BB8320912A02C22FD0E0CC0FDD1FCC0FDD1FC45DDD4FAC
:20328000288139814A815B81E0912A02F0E0EE0FFF1FEE0FFF1FE45DFD4F80819181A281BE
:2032A000B381E6E0B695A79597958795EA95D1F782279327A427B52788839983AA83BB8362
:2032C0006F5F603208F48DCF6093280220912A02C22FD0E0CC0FDD1FCC0FDD1FC45DDD4FA0
:2032E000288139814A815B81E0912A02F0E0EE0FFF1FEE0FFF1FE45DFD4F80819181A2815E
:20330000B38163E0880F991FAA1FBB1F6A95D1F7820F931FA41FB51F88839983AA83BB8311
:2033200020912A02C22FD0E0CC0FDD1FCC0FDD1FC45DDD4F288139814A815B81E0912A026D
:20334000F0E0EE0FFF1FEE0FFF1FE45DFD4F80819181A281B3816BE0B695A7959795879556
:203360006A95D1F782279327A427B52788839983AA83BB8320912A02C22FD0E0CC0FDD1F95
:20338000CC0FDD1FC45DDD4F288139814A815B81E0912A02F0E0EE0FFF1FEE0FFF1FE45D1B
:2033A000FD4F80819181A281B3816FE0880F991FAA1FBB1F6A95D1F7820F931FA41FB51F75
:2033C00088839983AA83BB83A0912A02B0E0E0912A02F0E0EE0FFF1FEE0FFF1FE45DFD4F3E
:2033E0002081318142815381AA0FBB1FAA0FBB1FA45DBD4F2D933D934D935C931397109205
:20340000270280912B02883049F48091290290E00196877090708093290205C080912B02D5
:203420008F5F80932B02FF91EF91DF91CF91BF91AF919F918F916F915F914F913F912F913E
:203440000F900FBE0F901F901895922FDB01FA0111C080818C93818111968C931197828109
:2034600012968C931297838113968C931397149634969450943068F7822F8695869590E094
:20348000880F991F880F991FDA01A80FB91FFB01E80FF91F237003C08D91819321502223DB
:2034A000D9F70895FC01DB0120E080819C9189278083818111969C911197892781838281B0
:2034C00012969C91129789278283838113969C91139789278383349614962C5F203129F70F
:2034E0000895CF93DF93EC01DB01FA0120E080819C9189278883818111969C911197892780
:203500008983828112969C91129789278A83838113969C91139789278B83249614963496F1
:203520002C5F203121F7DF91CF9108955F926F927F928F929F92AF92BF92CF92DF92EF92F0
:20354000FF920F931F93DF93CF9300D000D0CDB7DEB78C019B014032510531F1413251051D
:203560003CF44031510571F04831510531F513C0403C510581F081E040305807A9F04038A7
:203580005105D9F48AE090E0F80191838083F0E1EF2EF12C17C08CE090E0F8019183808350
:2035A000E8E1EE2EF12C0EC08EE090E0F8019183808370E2E72EF12C05C0F80111821082E6
:2035C0008FEF85C0F801C080C394C29460EFC622DE2CB8016E5F7F4FC801A9012E2D0E943D
:2035E000251ABE2CBB0C7E2D61E0AA243E010894611C711C55E0852E912C8C0E9D1E4BE116
:20360000542E4DC0E82FF0E0E655F44FE491E627E983E92FF0E0E655F44FE491EA83E22F6F
:20362000F0E0E655F44FE491EB83E32FF0E0E655F44FE491EC8367FF03C0660F652501C02C
:20364000660F7B2D13C0F0E2EF16F10479F4CA018F719070409751F4D301EC91F0E0E655FE
:20366000F44FE491ED93A815B905B9F7AA2DB0E01296A00FB11F93014E5F5F4F400F511FAB
:20368000F90181919F019D918927FA018193AF0128153905A9F7F4E0DF0EAF0EBF0EDC148B
:2036A000A8F44D2D50E044505040F801E40FF51F4C5F5F4F3281398383818A8394819B8394
:2036C00025812C83D71609F0BECF9CCF80E00F900F900F900F90CF91DF911F910F91FF902C
:2036E000EF90DF90CF90BF90AF909F908F907F906F905F900895DC01FC0180E012828F5F4B
:203700003196803FD9F71D921C9208952F923F924F925F926F927F928F929F92AF92BF92FF
:20372000CF92DF92EF92FF920F931F93DF93CF93CDB7DEB7A4970FB6F894DEBF0FBECDBFE2
:203740004C015AA349A3DC018D919C91892B11F48FEF26C1A4014E5F5F4F3E010894611C95
:20376000711CC3010E94711A3324339441E1442E512C4C0E5D1E3BE1232E8CC0E1E0F0E07D
:20378000EC0FFD1FEA0DF11D2081B4E0AB0EEFE0AE22E1E0F0E0EC0FFD1FEB0DF11D9081C1
:2037A000BB0EFFE0BF22E1E0F0E0EC0FFD1FEE0DF11D8081EB0E3FE0E322D601EC91F0E08D
:2037C000E655F44FF490E22FF0E0E655F44F7491E92FF0E0E655F44F6491E82FF0E0E65506
:2037E000F44FB491BBA3F7FE04C0AF2DAA0FA22502C0AF2DAA0F77FF04C0372F330F32253E
:2038000002C0372F330F67FF05C0E62FEE0FE225ECA303C0F62FFF0FFCA38BA187FF04C060
:20382000B82FBB0FB22502C0BBA1BB0F862F87279BA19827232F2A279227F8019083FBA1B6
:203840006F273F2563273CA16327F80161837F25FBA17F2773277B27F8017283AF258A270B
:203860008B27838384E090E0C80ED91E0C5F1F4FC414D50409F082CF24E0440F551F2A9591
:20388000E1F74E5F5F4F480D591DC301B2010E94711A3394432D50E0D4018D919C914817A0
:2038A00059074CF46301820195E0A92E8AE0B82EBFE0EB2E63CFE981F0E0E655F44FE491CE
:2038C000E983ED81F0E0E655F44FE491ED83E985F0E0E655F44FE491E987ED85F0E0E655BD
:2038E000F44FE491ED878A81EE81F0E0E655F44FE491EA83EA85F0E0E655F44FE491EE834F
:20390000EE85F0E0E655F44FE491EA87E82FF0E0E655F44F84918E878B81EB85F0E0E655EA
:20392000F44FE491EB83E82FF0E0E655F44F84918B878F81EF85F0E0E655F44FE491EF831C
:20394000E82FF0E0E655F44F84918F878889EC85F0E0E655F44FE491E88BE885F0E0E655A7
:20396000F44FE491EC87EC81F0E0E655F44FE491E887E82FF0E0E655F44F84918C83A4E070
:20398000440F551FAA95E1F74E5F5F4F480D591D89A19AA1BE016F5F7F4F0E94711A80E0D6
:2039A000A4960FB6F894DEBF0FBECDBFCF91DF911F910F91FF90EF90DF90CF90BF90AF90FC
:2039C0009F908F907F906F905F904F903F902F9008956F927F928F929F92AF92BF92CF923B
:2039E000DF92EF92FF920F931F93CF93DF935C013B014A0178018901C0E0D0E015C0C70148
:203A00000E94521AC501B701A7010E94861B609601501040882311F08FEF10C0C501B60121
:203A2000A70120E10E94251AB3016C0F7D1F6401CC0EDD1E0115110511F780E0DF91CF9193
:203A40001F910F91FF90EF90DF90CF90BF90AF909F908F907F906F9008952F923F924F9240
:203A60005F926F927F928F929F92AF92BF92CF92DF92EF92FF920F931F93DF93CF93CDB7CF
:203A8000DEB7A6970FB6F894DEBF0FBECDBF4C015CA34BA3FC01408151814115510511F492
:203AA0008FEF82C124E0440F551F2A95E1F74E5F5F4F480F591F8E010F5F1F4FC8010E94E3
:203AC000711AE981F0E0E655F54FE491E983ED81F0E0E655F54FE491ED83E985F0E0E655A6
:203AE000F54FE491E987ED85F0E0E655F54FE491ED878E85EA85F0E0E655F54FE491EE8738
:203B0000EE81F0E0E655F54FE491EA87EA81F0E0E655F54FE491EE83E82FF0E0E655F54FFB
:203B200084918A838B81EB85F0E0E655F54FE491EB83E82FF0E0E655F54F84918B878F8118
:203B4000EF85F0E0E655F54FE491EF83E82FF0E0E655F54F84918F878C81E885F0E0E655A5
:203B6000F54FE491EC83EC85F0E0E655F54FE491E887E889F0E0E655F54FE491EC87E82FBA
:203B8000F0E0E655F54F8491888BF401F081FAA39BE1592E9E012F5D3F4F3EA32DA3F1C08D
:203BA0003AA1432F50E084E0440F551F8A95E1F74E5F5F4F480D591DCE014196BE016F5F0D
:203BC0007F4F0E94711A01E1A02EB12CAC0EBD1E1E010894211C311C15E0C12ED12CF501AC
:203BE0004080A1817280638047FE04C0E42CEE0CE52402C0E42CEE0CA7FF04C0BA2FBB0F09
:203C0000B52502C0BA2FBB0F77FE04C0172D110F152502C0172D110F67FE04C0062D000FED
:203C2000052502C0062D000FE7FE04C09E2D990F952502C09E2D990FB7FF04C04B2F440F04
:203C4000452502C04B2F440F17FF04C0812F880F852502C0812F880F07FF04C0F02EFF0CA4
:203C6000F52402C0F02EFF0C97FF04C0592F550F552502C0592F550F47FF04C0342F330F23
:203C8000352502C0342F330F87FF04C0682F660F652502C0682F660FF7FE04C07F2D770FCA
:203CA000752502C07F2D770F252F24259527432749A33A27462F4827572F5625EB2FE7255B
:203CC000892F8E25E827E327E427E527F0E0E655F54F8491F101808367257F25B625B1270D
:203CE00089A18227B827B627B727EB2FF0E0E655F54F8491F601EF70F070B1E06B2E712C5C
:203D00006C0E7D1EE60DF71D8083102794251927132714271527E12FF0E0E655F54F84912F
:203D2000F6013596EF70F070E60DF71D80830A272E25022779A0072506270727E02FF0E0CC
:203D4000E655F54F84912AE030E0C20ED31EF601EF70F07041E050E04C0F5D1FE40FF51F0F
:203D6000808384E090E0A80EB91E280E391EEAEFFFEFCE0EDF1E6DA07EA0A614B70409F019
:203D80002ECF2AA121502AA3222309F009CF42E050E0840E951E8BA19CA1BE016F5F7F4FAC
:203DA000A4010E94711A80E0A6960FB6F894DEBF0FBECDBFCF91DF911F910F91FF90EF9020
:203DC000DF90CF90BF90AF909F908F907F906F905F904F903F902F9008952F923F924F92BF
:203DE0005F926F927F928F929F92AF92BF92CF92DF92EF92FF920F931F93DF93CF93CDB74C
:203E0000DEB762970FB6F894DEBF0FBECDBF5C017A8B698B1A013801690100E010E02E01BA
:203E20000894411C511C1EC0C501B201A70120E10E94251AC501B701A4010E942D1D005FCD
:203E40001F4F0894C108D108882311F08FEF15C0C401B3010E94521AC501B301A20120E112
:203E60000E94251AE988FA88E00EF11E4101800E911EC114D104C1F680E062960FB6F894E8
:203E8000DEBF0FBECDBFCF91DF911F910F91FF90EF90DF90CF90BF90AF909F908F907F9045
:203EA0006F905F904F903F902F90089581E080939F0260937A0210929D0210929E02089566
:203EC0002091790230E080917802281B3109C90108954091780280917902481718F02FEFDB
:203EE0003FEF0AC0E42FF0E0EA5AFD4F8081282F30E04F5F40937802C9010895E0917802A2
:203F000080917902E81718F0EFEFFFEF06C0F0E0EA5AFD4F8081E82FF0E0CF01089508952A
:203F20001092A3021092A20288EE93E0A0E0B0E08093A4029093A502A093A602B093A702B1
:203F400088ED91E09093A1028093A0020895CF92DF92EF92FF920F931F93CF93DF937C01DA
:203F60006B018A0180919F028823A1F0C0E0D0E00DC0D701ED91FC91D601AC0FBD1F01905D
:203F8000F081E02DC7016C9109952196C017D10780F304C0CB01642F0E94D920C801DF9170
:203FA000CF911F910F91FF90EF90DF90CF900895DF93CF930F92CDB7DEB7FC016983809150
:203FC0009F028823C9F080919E02823238F081E090E09383828320E030E015C080919D02CE
:203FE000E82FF0E0E558FD4F998190838F5F80939D0280939E0205C0CE01019661E00E94C3
:20400000D92021E030E0C9010F90CF91DF9108950F93062F80917A026BE772E040919E0247
:2040200021E00E94842010929D0210929E0210929F020F91089561E00E9408200895433219
:2040400008F042E2862F66E572E00E943B201092780280937902089521E00E941F2008952F
:20406000109278021092790210929D0210929E020E9485220895382F433210F040E042C0A0
:204080008091AC028823E1F791E09093AC022093AE028FEF80931F031092D60241504093A8
:2040A000D7024F5F9093AD028091AD02330F832B8093AD028091AF02813041F41092AF023A
:2040C0008091AD028093BB0085EC01C085EE8093BC008091AC028130E1F38091D602841716
:2040E00010F44091D60220E030E00AC0FB01E20FF31FD901AC54BD4F8C9180832F5F3F4F18
:204100002417A0F3842F08950F931F93582F122F433210F081E04AC08091AC028823E1F743
:2041200082E08093AC020093AE028FEF80931F031092D6024093D702A4EBB2E0FB0102C061
:2041400081918D938E2F861B8417D0F31092AD028091AD02550F852B8093AD028091AF02C8
:20416000813041F41092AF028091AD028093BB0085EC01C085EE8093BC00112321F08091AE
:20418000AC028230E1F380911F038F3F11F480E00DC080911F03803211F482E007C0809194
:2041A0001F03803311F084E001C083E01F910F910895482F633210F081E008958091AC02EB
:2041C000843011F082E008956093FB02A8EDB2E0842F9C01F90102C081918D938E2F841B7A
:2041E0008617D0F380E008951F920F920FB60F9211242F933F934F935F936F937F938F93D7
:204200009F93AF93BF93EF93FF938091B90090E0887F90708036910509F4F2C0813691053B
:20422000CCF58832910509F47BC089329105B4F48031910509F46FC0813191053CF40097BA
:2042400009F447C1089709F04FC165C08831910509F466C0809709F047C182C08034910576
:2042600009F4A4C08134910544F48033910509F482C0C89709F038C189C08035910509F4F0
:2042800089C08835910509F496C08834910509F02BC1AEC08839910509F413C1893991050A
:2042A000ECF48837910509F4ABC0893791054CF48836910509F4A4C08037910509F014C1FB
:2042C0009FC08838910509F4FCC08039910509F49DC08038910509F007C198C0803B91050F
:2042E00009F4C6C0813B91054CF4803A910509F49FC0883A910509F0F7C0BAC0803C910529
:2043000009F4E3C0883C910509F4DFC0883B910509F0EAC0C2C08091AD028093BB00CFC06C
:204320009091D6028091D702981768F49091D602E92FF0E0EC54FD4F80818093BB009F5F55
:204340009093D602BCC08091AE02882309F44BC085ED8093BC008091BC0084FDFCCFC2C096
:2043600080E280931F0385ED8093BC008091BC0084FDFCCFB7C080E380931F0385ED8093B8
:20438000BC008091BC0084FDFCCFACC088E380931F039BC08091D6029091BB00E82FF0E035
:2043A000EC54FD4F90838F5F8093D6029091D6028091D70282C08091D6029091BB00E82F84
:2043C000F0E0EC54FD4F90838F5F8093D6028091AE02882341F085ED8093BC008091BC00EA
:2043E00084FDFCCF7FC081E08093AF0284EA6EC085ED8093BC008091BC0084FDFCCF72C0E5
:2044000083E08093AC0210921E0359C080911E03823208F056C080911E039091BB00E82F83
:20442000F0E0E450FD4F90838F5F80931E0347C080911E03823230F4E0911E03F0E0E45050
:20444000FD4F108285ED8093BC008091BC0084FDFCCF1092AC0260911E03E091B202F0911C
:20446000B3028CEF92E070E0099510921E032DC084E08093AC021092FA021092FB02E09129
:20448000B002F091B10209958091FB02882329F481E08093FB021092D8029091FA02E92FA0
:2044A000F0E0E852FD4F80818093BB009F5F9093FA029091FA028091FB02981710F485EC6B
:2044C00001C085E88093BC000FC085EC8093BC0009C010921F0385ED8093BC008091BC0035
:2044E00084FDFCCF1092AC02FF91EF91BF91AF919F918F917F916F915F914F913F912F91C0
:204500000F900FBE0F901F9018951092AC0281E08093AE021092AF0282E061E00E94C5293A
:2045200083E061E00E94C529E9EBF0E080818E7F808380818D7F808388E48093B80085E4E2
:204540008093BC000895E0E2F3E082EFDF011D928A95E9F708950F93DF93CF930F92CDB723
:20456000DEB782E194E06CE770E0AE014F5F5F4F21E000E00E94C52889810F90CF91DF9138
:204580000F9108950F93AB0190EF899FB001112460507B4F82E194E020E100E00E94C52842
:2045A0000F910895CF92DF92EF92FF920F931F93DF93CF93CDB7DEB760970FB6F894DEBFB4
:2045C0000FBECDBF00E010E07E010894E11CF11C81E1C82ED12CCC0EDD1E802FB7010E945A
:2045E000C222F70190E08191982BEC15FD05D9F7992331F00F5F1F4F81E00030180769F7FE
:20460000C80160960FB6F894DEBF0FBECDBFCF91DF911F910F91FF90EF90DF90CF900895FB
:204620000F93AB0182E194E06CE070E020E201E00E94C5280F9108950F93DF93CF930F92F3
:20464000CDB7DEB769838FE694E00E94E42E82E194E06CE770E0AE014F5F5F4F21E001E051
:204660000E94C5280F90CF91DF910F910895AF92BF92CF92DF92EF92FF920F93DF93CF9313
:20468000CDB7DEB72C970FB6F894DEBF0FBECDBF5C016B0182E194E060E070E07E010894AC
:2046A000E11CF11CA7012CE000E00E94C528BC0120E030E0A701F901E854F34FE491DA0190
:2046C000A20FB31F8C918E1711F080E015C02F5F3F4F2C30310579F782E194E0A60120E2C1
:2046E00000E00E94C528C5010E94AB22682F8FE694E00E94E42E81E02C960FB6F894DEBFD1
:204700000FBECDBFCF91DF910F91FF90EF90DF90CF90BF90AF9008959F92AF92BF92CF92A5
:20472000DF92EF92FF920F931F93DF93CF93CDB7DEB7A0970FB6F894DEBF0FBECDBF80E6D1
:2047400094E060EB7CE00E94FC2BEE24FF246E010894C11CD11C21E2A22EB12CAC0EBD1E26
:204760009CE8992E82E194E0B701A60120E200E00E94C528860180E694E0F80161918F016B
:204780000E94DD2D0A151B05B1F7F60160E00CC0208198E0822F8627669580FD6925915025
:2047A00011F02695F7CF3196E017F10789F780E694E00E94DD2D80E290E0E80EF91E90E06C
:2047C000E9169AEFF90671F680E694E06AEA7CE00E94FC2BA0960FB6F894DEBF0FBECDBF1B
:2047E000CF91DF911F910F91FF90EF90DF90CF90BF90AF909F900895AF92BF92CF92DF92FF
:20480000EF92FF920F931F93DF93CF93CDB7DEB7A0970FB6F894DEBF0FBECDBF80E694E0ED
:2048200040E355E760E070E00E94AD2FEE24FF246E010894C11CD11C31E2A32EB12CAC0E86
:20484000BD1E1CE880E694E065E471E00E94442D80E694E0B60140E250E00E94DF2F809748
:2048600009F049C080E694E00E94952D082F80E694E067E471E00E94442DF60190E00CC005
:20488000308128E0832F8927969580FD9127215011F03695F7CF3196EA15FB0589F79017AD
:2048A00089F080E694E069E471E00E94442D82E194E060E070E04BE451E026E001E00E94A4
:2048C000C528FFCF80E694E061E571E00E94442D82E194E0B701A60120E201E00E94C528F1
:2048E00080E290E0E80EF91E90E0E9169AEFF90609F0A8CF06C080E694E063E571E00E9497
:20490000442D80E694E065E571E00E94442DA0960FB6F894DEBF0FBECDBFCF91DF911F91A1
:204920000F91FF90EF90DF90CF90BF90AF900895AF92BF92DF92EF92FF920F931F93DF93F5
:20494000CF93CDB7DEB760970FB6F894DEBF0FBECDBF7B0110E05E010894A11CB11C16C0D7
:204960008CE492E00E94C3188823D1F38CE492E04FEF50E060E070E00E941F18F701E10FC8
:20498000F11D60831F5F02C010E0EACF103140F3DD2420E030E0F701E20FF31F8081D82ABA
:2049A0002F5F3F4F20313105B1F782E194E06CE270E0A50120E100E00E94C528C501B701A3
:2049C00040E150E00E947A090097F1F200E010E0802FB5010E94C222C501B70140E150E05D
:2049E0000E947A09009781F20F5F1F4F81E00030180771F7DD2041F260960FB6F894DEBF80
:204A00000FBECDBFCF91DF911F910F91FF90EF90DF90BF90AF9008956F927F928F929F9211
:204A2000AF92BF92CF92DF92EF92FF920F931F93DF93CF93CDB7DEB7C055D0400FB6F89449
:204A4000DEBF0FBECDBFB82EA92E962E872E8E010F5C1F4FB8010E949824B801605F7F4F65
:204A60008B2D9A2D0E949824292D382DC901DC01F801C801702E692E9801205E3F4F8C913E
:204A8000919189278D93E217F307C9F78B2D9A2D7E010894E11CF11CB7010E94982482E154
:204AA00094E06CE270E0A70120E101E00E94C5288B2D9A2D692D782D40E051E00E94961A6E
:204AC00041E1C42ED12CCC0EDD1E8B2D9A2D692D782DA60122E030E087010E94E91C82E1EB
:204AE00094E06CE370E0A60120E201E00E94C52882E194E06CE570E0472D562D20E20E9477
:204B0000C528C05BDF4F0FB6F894DEBF0FBECDBFCF91DF911F910F91FF90EF90DF90CF901C
:204B2000BF90AF909F908F907F906F9008956F927F928F929F92AF92BF92CF92DF92EF92A5
:204B4000FF920F931F93DF93CF93CDB7DEB760970FB6F894DEBF0FBECDBF4C01742E652EC3
:204B600080EF689F8001112400501B4FC4017E010894E11CF11CB7010E94982452E1A52E49
:204B800054E0B52EC501B801A70120E101E00E94C5286C01C401672D762D472D562D2EE0F8
:204BA00030E087010E94E91CC501B601472D562D20EE01E00E94C52860960FB6F894DEBFE0
:204BC0000FBECDBFCF91DF911F910F91FF90EF90DF90CF90BF90AF909F908F907F906F9096
:204BE0000895AF92BF92CF92DF92EF92FF920F931F93DF93CF93CDB7DEB7C05ED0400FB66E
:204C0000F894DEBF0FBECDBF80EF689FB001112460507B4F7E010894E11CF11C80EEF701B1
:204C200011928A95E9F782E194E0A70120E101E00E94C5286C01870161EEA62EB12CAC0E33
:204C4000BD1E6FEF70E080E090E00E94832FF80161938F01EA15FB05A1F782E194E0B60105
:204C6000A70120EE01E00E94C528C052DF4F0FB6F894DEBF0FBECDBFCF91DF911F910F9167
:204C8000FF90EF90DF90CF90BF90AF900895AF92BF92CF92DF92EF92FF920F931F93DF93D1
:204CA000CF93CDB7DEB72C970FB6F894DEBF0FBECDBF7C015B016A0180E694E06FED7CE099
:204CC0000E94472C00E010E080E694E06DE00E94DD2D80E694E0B8014AE050E00E94CE2C93
:204CE00080E694E06FE20E94DD2D80E694E06FEF70E04AE050E00E94312DC701602F0E9402
:204D0000F1250F5F1F4F81E000301807E9F680E694E062ED7CE00E94FC2B80E090E0AE0145
:204D20004F5F5F4FFC01E854F34FE491DA01A80FB91FEC9301968C309105A1F782E194E0E6
:204D400060E070E02CE001E00E94C52882E194E06CE070E0A60120E20E94C528C701B5011E
:204D60000E940C2580E694E064EC7CE00E94472C2C960FB6F894DEBF0FBECDBFCF91DF91EC
:204D80001F910F91FF90EF90DF90CF90BF90AF900895CF92DF92EF92FF920F931F93DF9312
:204DA000CF93CDB7DEB760970FB6F894DEBF0FBECDBF6C01862FF42EE52E8E010F5F1F4F78
:204DC000B8010E94C222BC01F80190E09E012F5E3F4F8191982BE217F307D9F7992311F45B
:204DE00080E015C082E194E04F2D5E2D20EE00E00E94C528C6016F2D7E2D4F2D5E2D2EE000
:204E000030E08E010F5F1F4F0E94ED1E81E060960FB6F894DEBF0FBECDBFCF91DF911F914C
:204E20000F91FF90EF90DF90CF900895AF92BF92CF92DF92EF92FF920F931F93DF93CF93BB
:204E4000CDB7DEB7E0970FB6F894DEBF0FBECDBF6C01862F5A018E010F5F1F4FB8010E9438
:204E6000C222BC01780190E09E012F5E3F4FF70181917F01982BE217F307C9F7992311F42D
:204E800080E012C082E194E0AF0120E200E00E94C528C601B701A50122E030E08E010F5FB4
:204EA0001F4F0E94ED1E81E0E0960FB6F894DEBF0FBECDBFCF91DF911F910F91FF90EF908B
:204EC000DF90CF90BF90AF9008956F927F928F929F92AF92BF92CF92DF92EF92FF920F935D
:204EE0001F93DF93CF93CDB7DEB7C050D1400FB6F894DEBF0FBECDBF7C01D62EC72E942E73
:204F0000852E80E694E061E07DE00E94472CC7016D2D7C2D0E940C2580E694E065EF7CE0E9
:204F20000E94472C00E010E03E010894611C711C71E2A72EB12CAC0EBD1E80E694E06DE0E6
:204F40000E94DD2D80E694E0B8014AE050E00E94CE2C80E694E06FE20E94DD2D80E694E06B
:204F60006FEF70E04AE050E00E94312DC701602FA3010E9416278823C1F0C701692D782DF0
:204F800040E051E00E94961AC701602FA5010E94C926C7016D2D7C2D40E051E00E94961A32
:204FA000C701602FA5010E9497250F5F1F4F81E00030180711F680E2ED2DFC2DDF01982FB7
:204FC0001D929A95E9F7E92DF82DDF011D928A95E9F780EEFE01B196DF011D928A95E9F708
:204FE00080E694E06BEE7CE00E94472CC050DF4F0FB6F894DEBF0FBECDBFCF91DF911F9108
:205000000F91FF90EF90DF90CF90BF90AF909F908F907F906F900895BF92CF92DF92EF92E9
:20502000FF920F931F93DF93CF93CDB7DEB7C055D0400FB6F894DEBF0FBECDBF182FB92E04
:205040006B0182E194E06CE270E0AE014F5F5F4F20E100E00E94C528BC0182E194E0AE01B1
:205060004F5E5F4F20E20E94C528BC01F1E3EF2EF12CEC0EFD1E82E194E0A70120E20E9441
:20508000C528D601F7019701205E3F4F8C91919189278D93E217F307C9F7812F9B2DB601BF
:2050A00040E051E00E94961AE1E1EE2EF12CEC0EFD1E812F9B2DB701A70122E030E08E01C4
:2050C0000F5F1F4F0E94ED1E882311F010E013C011E020E030E0A701FA01E20FF31FD6015A
:2050E000A20FB31F90818C91981310E02F5F3F4F2032310589F7812FC05BDF4F0FB6F894F6
:20510000DEBF0FBECDBFCF91DF911F910F91FF90EF90DF90CF90BF9008950E947B1B0895DC
:2051200008950F931F93182F062F61E00E943829812F602F0E94C5291F910F9108951F9350
:20514000162F82E160E00E94912883E160E00E94912884E160E00E94912885E160E00E94C5
:20516000912884E060E00E94912885E0612F0E9491288FE0612F0E9491286AE070E080E0D3
:2051800090E00E94232B1F910895AF92BF92CF92DF92EF92FF920F931F93CF93DF93EB01D8
:2051A0006A01B22EA02E55C00B2D80E28B1508F400E28C2F9C2F900F9F778F77981708F4BD
:2051C000091B80EA92E060E570E00E94561F80EA92E06D2F0E94D81FBE01707080EA92E097
:2051E0000E94D81FAA20A1F0760110E008C080EA92E0F70161917F010E94D81F1F5F101708
:20520000B0F380EA92E00E941B20C00ED11C18C080EA92E00E941B2080EA92E060E5402F56
:205220000E942C2007C080EA92E00E94691FF60181936F0180EA92E00E94601F892B99F7F7
:2052400064E070E080E090E00E94232BC00FD11DB01ABB2009F0A8CFCE01DF91CF911F91D9
:205260000F91FF90EF90DF90CF90BF90AF900895CF93DF93482F50E0CA01845A924FFC0185
:205280003491425C524FFA018491882369F190E0880F991FFC01EC5EF24FA591B491FC0136
:2052A000EE5DF24FC591D491662351F42FB7F8948C91932F909589238C93888189230BC018
:2052C000623061F42FB7F8948C91932F909589238C938881832B88832FBF06C09FB7F8944E
:2052E0008C91832B8C939FBFDF91CF910895883071F1893068F4823031F1833020F481307E
:2053000009F042C01DC0833089F08430E9F512C08B3059F18C3028F48930E9F08A30A1F566
:205320001EC08C3031F18E3079F529C0809180008F7703C0809180008F7D80938000089575
:2053400084B58F7702C084B58F7D84BD0895809190008F7707C0809190008F7D03C080913A
:205360009000877F8093900008958091C0008F7703C08091C0008F7D8093C000089580915F
:20538000C200877F8093C2000895FF920F931F93F62E482F50E0CA018658924FFC012491E7
:2053A000CA01845A924FFC011491425C524FFA0104910023C9F0222319F0822F0E947729D5
:2053C000E02FF0E0EE0FFF1FEE5DF24FA591B4919FB7F894FF2021F48C911095812302C08E
:2053E0008C91812B8C939FBF1F910F91FF9008950F931F93482F50E0CA018658924FFC0169
:205400002491CA01845A924FFC010491425C524FFA011491112319F420E030E015C0222371
:2054200019F0822F0E947729812F90E0880F991F805D924FFC01A591B4918C9120E030E09E
:20544000802311F021E030E0C9011F910F9108951F93CF93DF93182FEB0161E00E943829E3
:20546000209709F48FC0CF3FD10509F48EC0E12FF0E0E658F24F8491883009F440C0893018
:2054800070F4823019F1833020F4813009F077C018C0833001F1843009F071C026C08B3048
:2054A00009F44BC08C3030F4893099F18A3009F066C039C08C3009F44DC08E3009F05FC053
:2054C00051C084B5806884BDC7BD63C084B5806284BDC8BD5EC080918000806880938000A7
:2054E000D0938900C093880054C080918000806280938000D0938B00C0938A004AC08091E5
:205500009000806880939000D0939900C093980040C080919000806280939000D0939B0065
:20552000C0939A0036C080919000886080939000D0939D00C0939C002CC08091C0008068C8
:205540008093C0008091C0008F7B8093C000C093CF001FC08091C00080628093C000C093F0
:20556000D00017C08091C20088608093C2008091C2008B7F8093C200C093D2000AC0C0385B
:20558000D1051CF4812F60E002C0812F61E00E94C529DF91CF911F9108951F920F920FB6BE
:2055A0000F9211242F933F938F939F93AF93BF938091170490911804A0911904B0911A0483
:2055C00030911B040196A11DB11D232F2D5F2D3720F02D570196A11DB11D20931B048093EA
:2055E000170490931804A0931904B0931A048091130490911404A0911504B0911604019603
:20560000A11DB11D8093130490931404A0931504B0931604BF91AF919F918F913F912F9180
:205620000F900FBE0F901F9018958FB7F89420911704309118044091190450911A048FBF4D
:20564000B901CA0108959B01AC017FB7F8948091130490911404A0911504B091160466B5FC
:20566000A89B05C06F3F19F00196A11DB11D7FBFBA2FA92F982F8827860F911DA11DB11D04
:2056800062E0880F991FAA1FBB1F6A95D1F7BC012DC0FFB7F8948091130490911404A09191
:2056A0001504B0911604E6B5A89B05C0EF3F19F00196A11DB11DFFBFBA2FA92F982F882784
:2056C0008E0F911DA11DB11DE2E0880F991FAA1FBB1FEA95D1F7861B970B885E9340C8F242
:2056E000215030404040504068517C4F211531054105510571F60895789484B5826084BDC1
:2057000084B5816084BD85B5826085BD85B5816085BDEEE6F0E0808181608083E1E8F0E051
:205720001082808182608083808181608083E0E8F0E0808181608083E1E9F0E08081826012
:205740008083808181608083E0E9F0E0808181608083E1ECF0E0808184608083808182607B
:205760008083808181608083E3ECF0E0808181608083E0ECF0E0808182608083E2ECF0E09D
:20578000808181608083EAE7F0E080818460808380818260808380818160808380818068E7
:2057A00080830895CF92DF92EF92FF920F931F93CF93DF937C016B018A01C0E0D0E00FC0AA
:2057C000D6016D916D01D701ED91FC910190F081E02DC7010995C80FD91F015010400115A8
:2057E000110571F7CE01DF91CF911F910F91FF90EF90DF90CF900895EF92FF920F931F935D
:20580000CF93DF937C018B01C0E0D0E0F8010F5F1F4F6491662359F0D701ED91FC9101904B
:20582000F081E02DC7010995C80FD91FEFCFCE01DF91CF911F910F91FF90EF900895DC0180
:20584000ED91FC910190F081E02D09950895EF92FF920F931F938C01DC01ED91FC91019087
:20586000F081E02D6DE009957C01D801ED91FC910190F081E02DC8016AE009959C012E0DC6
:205880003F1DC9011F910F91FF90EF900895EF92FF920F931F937C010E94FC2B8C01C701E6
:2058A0000E94272C9C01200F311FC9011F910F91FF90EF9008954F925F927F928F929F92DD
:2058C000AF92BF92CF92DF92EF92FF920F931F93DF93CF93CDB7DEB7A1970FB6F894DEBFEB
:2058E0000FBECDBF2C01742ECB01223008F42AE019A231E2C32ED12CCC0EDD1E822E99245E
:20590000AA24BB24672D752FA50194010E947C3379018A01C801B701A50194010E944A3336
:20592000472D461B0894C108D1084A3014F4405D01C0495CF6014083E114F104010511050F
:2059400021F07E2C5F2DC801DDCFC201B6010E94D709A1960FB6F894DEBF0FBECDBFCF91B1
:20596000DF911F910F91FF90EF90DF90CF90BF90AF909F908F907F905F904F900895DC0158
:205980002115310541F4ED91FC910190F081E02D642F099508950E945B2C0895EF92FF92A6
:2059A0000F931F939A017B0100E010E0B801A7010E94BF2C1F910F91FF90EF900895EF9242
:2059C000FF920F931F939A01E62EFF2400E010E0B801A7010E94BF2C1F910F91FF90EF90F4
:2059E0000895CF92DF92EF92FF920F931F93CF93DF93EC016A017B012115310541F4E88120
:205A0000F9810190F081E02D642F09951FC02A303105D1F477FF17C0E881F9810190F08166
:205A2000E02D6DE209958C0144275527BA014C195D096E097F09CE012AE00E945B2C9801D8
:205A4000280F391F04C02AE00E945B2C9C01C901DF91CF911F910F91FF90EF90DF90CF905D
:205A60000895EF92FF920F931F937B019A010027F7FC0095102FB801A7010E94F12C1F914E
:205A80000F91FF90EF9008950E94D7090895EF92FF920F931F937C010E94D7098C01C701E2
:205AA0000E94272C080F191FC8011F910F91FF90EF900895CF93DF930E947C2B85E894E0E0
:205AC0000E94B7300E94C113C0E0D0E00E943C152097E1F30E940000F9CF089520915C04E1
:205AE00030915D0480915E0490915F04281B390B2F733070C901089520915C0430915D042A
:205B000080915E0490915F042817390719F42FEF3FEF09C0E0915E04F0915F04E45EFB4FAA
:205B20008081282F30E0C901089520915C0430915D0480915E0490915F042817390719F4E0
:205B40002FEF3FEF13C0E0915E04F0915F04E45EFB4F208180915E0490915F0401968F73B2
:205B6000907090935F0480935E0430E0C9010895109263041092620488EE93E0A0E0B0E0A9
:205B80008093640490936504A0936604B093670488EE91E0909361048093600408951F937E
:205BA00010916D016AE070E080E090E00E94232B111111E0812F1F9108950F931F93DF93A6
:205BC000CF930F92CDB7DEB78C01698380916D01882369F083E0BE016F5F7F4F41E050E09E
:205BE0000E94D5301816190614F49C0107C081E090E0F8019383828320E030E0C9010F90E7
:205C0000CF91DF911F910F91089583E00E94AC300895CF93DF9312C082E00E9437302FEF1A
:205C20008F3F9207C9F0E0915C04F0915D04E45EFB4F8083D0935D04C0935C04C0915C04DA
:205C4000D0915D042196CF73D07080915E0490915F04C817D90701F7DF91CF910895FC0131
:205C600080818E5F808380E864EA7DE042E450E00E9450300895FC0181819081913A59F4E3
:205C8000813209F04CC080E066E671E047E050E00E94503042C0913209F041C0803239F438
:205CA00086E691E067E070E00E94943036C0823209F035C0828180936D0180916601909155
:205CC0006701A0916801B0916901805B9440A040B04019F580916D0180FD12C087E797E7D0
:205CE00090930108809300082BE088E190E00FB6F894A895809360000FBE209360000DC0CB
:205D000088E10FB6F89480936000109260000FBEA895109201081092000881E0089580E097
:205D20000895FC0191818081813A31F4913089F080E0933089F40DC0813269F49B3021F43F
:205D4000828180936E0105C09A3029F4828180936F0181E0089580E00895FC01A081B18141
:205D600018962D913C911997F901099581E090E00895EF92FF920F931F938C01E62EDC0150
:205D8000ED91FC910480F581E02D0995F82ED801ED91FC910680F781E02DC8016E2D09953C
:205DA0008F2D90E01F910F91FF90EF90089510926E0410927204109271048AEF91E090936C
:205DC000700480936F0408951F93162F613041F0613018F0623071F406C08EE29FE005C069
:205DE0008EE29EE002C08EE290E190937C0480937B040DC080E694E067E571E00E94442D86
:205E000080E694E0612F4AE050E00E94DF2C1F910895EF92FF920F931F93DF93CF930F92E9
:205E2000CDB7DEB789838B017A0184E0BE016F5F7F4F41E050E00E94D53084E4B801A701B6
:205E40000E94D5300F90CF91DF911F910F91FF90EF90089582E048E050E00E94092F089500
:205E6000FC0116821782108611861286138614823496BF010E942A2F0895DC0117961C92A6
:205E8000179718961C92189719961C9219971A961C921A971B961C921B9714961C92149719
:205EA00080917B0490917C0470E0660F771FFC01E60FF71FE4911696EC9316976F5F7F4F65
:205EC000860F971FFC01849114968C931497CD011496BD010E942A2F81E090E0089580E8EA
:205EE00066EE7DE04FE250E00E9450300895FC0180818F5F808380E865E17EE049E150E07C
:205F00000E9450300895EF92FF920F931F937B018C01611571058105910529F420E030E01E
:205F200040E050E00BC00E944E09A80197010E949E33AC01CB01DA019C01AD01B901CA0175
:205F40001F910F91FF90EF900895009729F0BC0180E090E00E9453090895FC0144835583D2
:205F6000668377830895CF93DF93EC010E94152B688779878A879B87E881F9810680F781FB
:205F8000E02DCE0109959C0197FF15C00E94152B288539854A855B85621B730B840B950B59
:205FA0002C813D814E815F81621773078407950718F32FEF3FEFC901DF91CF910895CF92BE
:205FC000DF92EF92FF920F931F93CF93DF936C018B017A01C0E0D0E009C0C6010E94B32F3E
:205FE00097FD07C0F80181938F012196CE15DF05A0F3CE01DF91CF911F910F91FF90EF909B
:20600000DF90CF900895282F80917F048823C1F057FF1AC015C0289890937E048091F10062
:206020008193E217F307B9F74115510539F08091F200882319F48BE68093E800AFBF02C07D
:206040004FEF5FEFCA010895AFB7F89427702093E9008091F200282F30E0241735070CF446
:20606000A901FB019B01240F311D94E6DACFDF93CF930F92CDB7DEB7BE016F5F7F4F41E030
:2060800050E00E940330019719F02FEF3FEF03C08981282F30E0C9010F90CF91DF91089504
:2060A000FF920F931F93F82E142F052F4091820450918304212F302FC901DC01FB016EEFF0
:2060C00029C0F7FE02C0949101C09081209180043091810424173507ACF48091E8008570A9
:2060E000E1F38091E80082FF03C02FEF3FEF17C09093F100C90101968F739070892B11F43C
:206100006093E8002F5F3F4F3093810420938004119731961097A9F6812F902F9C01C9017E
:206120001F910F91FF9008959C018091E80082FFFCCFF901260F311D03C08091F1008193AB
:20614000E217F307D1F7289884E680937E048BEF8093E800CB0108958093E9008091F200E8
:20616000882319F08AE38093E8000895089510927F0481E08093D70080EA8093D80082E1A1
:2061800089BD09B400FEFDCF61E070E080E090E00E94232B80E98093D8008CE08093E2002C
:2061A0001092E000559A209A08955F926F927F928F929F92AF92BF92CF92DF92EF92FF924C
:2061C0000F931F93CF93DF93E82E842E752E80917F04882371F18B01242F352FC901EC0191
:2061E0007AEFF72E67E0962E9E2050E4552E8E2D90E040E2A42EB12CA822B9223AE3632E42
:2062000020E4C22ED12CC822D92258C09FB7F8949092E9008091E80085FD02C020E004C0A2
:206220008091F200252D281B9FBF222361F4FA9419F42FEF3FEF4DC061E070E080E090E079
:206240000E94232B3BC0822F90E0C817D9070CF42C2FC21BD1094FB7F8949092E900A1140F
:20626000B10421F406C01092F10021502223D9F719C0E7FC03C0F801922F10C0C801322F42
:2062800006C0FC010196E491E093F10031503323C1F706C081918093F10091509923D1F7FB
:2062A000020F111D8091E80085FF05C0209729F4C114D10411F06092E8004FBF209709F046
:2062C000A5CF5D9884E680937D04282D372DC9019C01C901DF91CF911F910F91FF90EF903F
:2062E000DF90CF90BF90AF909F908F907F906F905F9008951F920F920FB60F9211242F93AB
:206300003F934F935F936F937F938F939F93AF93BF93EF93FF938091E1001092E100982F8B
:2063200083FF0FC01092E90081E08093EB001092EC0082E38093ED0010927F0488E080938F
:20634000F00092FF34C083E08093E9008091F200882319F08AE38093E8008FB7F89492E006
:206360009093E9009091F2008FBF992321F080E694E00E94092E80917D04882351F08091A1
:206380007D04815080937D0480917D04882309F45D9A80917E04882351F080917E04815003
:2063A00080937E0480917E04882309F4289AFF91EF91BF91AF919F918F917F916F915F915B
:2063C0004F913F912F910F900FBE0F901F9018950F931F93DF93CF930F92CDB7DEB7198269
:2063E0008E010F5F1F4FC8010E942F2EC8010E94772F898190E00F90CF91DF911F910F9120
:2064000008951F920F920FB60F921124EF92FF921F932F933F934F935F936F937F938F9390
:206420009F93AF93BF93EF93FF93DF93CF93CDB7DEB76197DEBFCDBF1092E9008091E800F0
:2064400083FF0FC1FE0131969E01275F3F4F03C08091F1008193E217F307D1F7289884E6B3
:2064600080937E0482EF8093E800998197FF05C08091E80080FFFCCF03C08EEF8093E80028
:20648000292F30E0C90180769070892B09F0C2C08A81882329F41092F1001092F100D6C016
:2064A000813009F4D3C0833009F4D0C0853049F48091E80080FFFCCF8B8180688093E3003C
:2064C000C5C0863009F07CC01C81EF80F8841230C1F51092E9001092810410928004109252
:2064E0008304109282040E94E83199E0FE013996DF01292F1D922A95E9F799871A8791E033
:206500009E8790E8988B9AEF998B2091800430918104275F3F4F3C872B878D871092E9006B
:206520001092810410928004F0928304E092820480E0BF0149E050E00E9450300E94E831B7
:2065400085C01092E9001092810410928004F0928304E0928204123241F482E290E00E942E
:206560006F2F892B09F476C071C0113079F488E0E816F10419F481E08093840480918404BA
:20658000882309F06BC0ECE6F1E113C0133009F061C08B81882319F4EEE2F1E10AC0823076
:2065A00019F4E2E3F1E105C0813009F053C0E4E5F1E1449180E8BF0150E00E94503046C0C5
:2065C000873009F447C0883021F481E08093F1003DC08930D9F523703070232BD9F5E1E931
:2065E000F1E191E031E026E39093E9003093EB0084918093EC002093ED009F5F3196953046
:2066000099F78EE78093EA001092EA008B8180937F041CC08F8198851092E900109281048F
:206620001092800490938304809382048D81882329F4CE0101960E943B2E06C0823051F4ED
:20664000CE0101960E94912E882321F08EEF8093E80007C081E28093EB0003C0EEE7F1E1AD
:20666000A8CF6196DEBFCDBFCF91DF91FF91EF91BF91AF919F918F917F916F915F914F91E3
:206680003F912F911F91FF90EF900F900FBE0F901F901895629FD001739FF001829FE00D62
:2066A000F11D649FE00DF11D929FF00D839FF00D749FF00D659FF00D9927729FB00DE11DE4
:2066C000F91F639FB00DE11DF91FBD01CF011124089597FB092E07260AD077FD04D049D03C
:2066E00006D000201AF4709561957F4F0895F6F7909581959F4F0895A1E21A2EAA1BBB1B17
:20670000FD010DC0AA1FBB1FEE1FFF1FA217B307E407F50720F0A21BB30BE40BF50B661F87
:20672000771F881F991F1A9469F760957095809590959B01AC01BD01CF01089597FB092EE5
:2067400005260ED057FD04D0D7DF0AD0001C38F450954095309521953F4F4F4F5F4F089584
:20676000F6F790958095709561957F4F8F4F9F4F0895AA1BBB1B51E107C0AA1FBB1FA617CC
:20678000B70710F0A61BB70B881F991F5A95A9F780959095BC01CD010895EE0FFF1F0590B8
:2067A000F491E02D09942F923F924F925F926F927F928F929F92AF92BF92CF92DF92EF92FD
:2067C000FF920F931F93CF93DF93CDB7DEB7CA1BDB0B0FB6F894DEBF0FBECDBF09942A8886
:2067E000398848885F846E847D848C849B84AA84B984C884DF80EE80FD800C811B81AA81AE
:20680000B981CE0FD11D0FB6F894DEBF0FBECDBFED010895F894FFCF2F355D0D0A00202D22
:2068200020000D0A005B4B000D5B000D202020202020200D005D000D0A5B64656C657465D7
:20684000645D00537570706F72746564207370656369616C733A005B4B3E00250052005751
:206860000043005B4352435D004F0046004500556E6B6E6F776E3A0001000000FFFF00E161
:206880000000000000000101303132333435363738394142434445464748494A4B4C4D4E00
:2068A0004F505152535455565758595A6162636465666768696A6B6C6D6E6F707172737490
:2068C00075767778797A212223242526403F28295B5D2D2E2C2B7B7D5F2F3C3E3D7C275CA0
:2068E0003B3A202A1B5B324A1B5B480000000000D81FA71F601F691F7E1F8F1F000000001A
:1C690000DD2DD22B6E2D952D7C2D052E092E00000000B92ED22B3D2FAD2E302F7A
:00000001FF
